{
  "_format": "hh-sol-artifact-1",
  "contractName": "Matrix",
  "sourceName": "contracts/Matrix.sol",
  "abi": [
    {
      "inputs": [
        {
          "internalType": "address",
          "name": "_USDTAddress",
          "type": "address"
        },
        {
          "internalType": "address",
          "name": "_BUSDAddress",
          "type": "address"
        }
      ],
      "stateMutability": "nonpayable",
      "type": "constructor"
    },
    {
      "anonymous": false,
      "inputs": [
        {
          "indexed": true,
          "internalType": "address",
          "name": "owner",
          "type": "address"
        },
        {
          "indexed": true,
          "internalType": "address",
          "name": "spender",
          "type": "address"
        },
        {
          "indexed": false,
          "internalType": "uint256",
          "name": "value",
          "type": "uint256"
        }
      ],
      "name": "Approval",
      "type": "event"
    },
    {
      "anonymous": false,
      "inputs": [
        {
          "indexed": false,
          "internalType": "address",
          "name": "sender",
          "type": "address"
        },
        {
          "indexed": false,
          "internalType": "uint256",
          "name": "amount",
          "type": "uint256"
        },
        {
          "indexed": false,
          "internalType": "string",
          "name": "currency",
          "type": "string"
        }
      ],
      "name": "Deposited",
      "type": "event"
    },
    {
      "anonymous": false,
      "inputs": [
        {
          "indexed": true,
          "internalType": "address",
          "name": "previousOwner",
          "type": "address"
        },
        {
          "indexed": true,
          "internalType": "address",
          "name": "newOwner",
          "type": "address"
        }
      ],
      "name": "OwnershipTransferred",
      "type": "event"
    },
    {
      "anonymous": false,
      "inputs": [
        {
          "indexed": true,
          "internalType": "address",
          "name": "from",
          "type": "address"
        },
        {
          "indexed": true,
          "internalType": "address",
          "name": "to",
          "type": "address"
        },
        {
          "indexed": false,
          "internalType": "uint256",
          "name": "value",
          "type": "uint256"
        }
      ],
      "name": "Transfer",
      "type": "event"
    },
    {
      "anonymous": false,
      "inputs": [
        {
          "indexed": false,
          "internalType": "address",
          "name": "sender",
          "type": "address"
        },
        {
          "indexed": false,
          "internalType": "uint256",
          "name": "amount",
          "type": "uint256"
        },
        {
          "indexed": false,
          "internalType": "string",
          "name": "currency",
          "type": "string"
        }
      ],
      "name": "Withdrawn",
      "type": "event"
    },
    {
      "inputs": [],
      "name": "BUSDToken",
      "outputs": [
        {
          "internalType": "contract IERC20",
          "name": "",
          "type": "address"
        }
      ],
      "stateMutability": "view",
      "type": "function"
    },
    {
      "inputs": [],
      "name": "USDTToken",
      "outputs": [
        {
          "internalType": "contract IERC20",
          "name": "",
          "type": "address"
        }
      ],
      "stateMutability": "view",
      "type": "function"
    },
    {
      "inputs": [
        {
          "internalType": "address",
          "name": "owner",
          "type": "address"
        },
        {
          "internalType": "address",
          "name": "spender",
          "type": "address"
        }
      ],
      "name": "allowance",
      "outputs": [
        {
          "internalType": "uint256",
          "name": "",
          "type": "uint256"
        }
      ],
      "stateMutability": "view",
      "type": "function"
    },
    {
      "inputs": [
        {
          "internalType": "address",
          "name": "spender",
          "type": "address"
        },
        {
          "internalType": "uint256",
          "name": "amount",
          "type": "uint256"
        }
      ],
      "name": "approve",
      "outputs": [
        {
          "internalType": "bool",
          "name": "",
          "type": "bool"
        }
      ],
      "stateMutability": "nonpayable",
      "type": "function"
    },
    {
      "inputs": [
        {
          "internalType": "address",
          "name": "account",
          "type": "address"
        }
      ],
      "name": "balanceOf",
      "outputs": [
        {
          "internalType": "uint256",
          "name": "",
          "type": "uint256"
        }
      ],
      "stateMutability": "view",
      "type": "function"
    },
    {
      "inputs": [],
      "name": "decimals",
      "outputs": [
        {
          "internalType": "uint8",
          "name": "",
          "type": "uint8"
        }
      ],
      "stateMutability": "view",
      "type": "function"
    },
    {
      "inputs": [
        {
          "internalType": "address",
          "name": "spender",
          "type": "address"
        },
        {
          "internalType": "uint256",
          "name": "subtractedValue",
          "type": "uint256"
        }
      ],
      "name": "decreaseAllowance",
      "outputs": [
        {
          "internalType": "bool",
          "name": "",
          "type": "bool"
        }
      ],
      "stateMutability": "nonpayable",
      "type": "function"
    },
    {
      "inputs": [
        {
          "internalType": "uint256",
          "name": "_amount",
          "type": "uint256"
        }
      ],
      "name": "depositBUSD",
      "outputs": [],
      "stateMutability": "payable",
      "type": "function"
    },
    {
      "inputs": [
        {
          "internalType": "uint256",
          "name": "_amount",
          "type": "uint256"
        }
      ],
      "name": "depositUSDT",
      "outputs": [],
      "stateMutability": "payable",
      "type": "function"
    },
    {
      "inputs": [],
      "name": "getBUSDDeposit",
      "outputs": [
        {
          "internalType": "uint256",
          "name": "",
          "type": "uint256"
        }
      ],
      "stateMutability": "view",
      "type": "function"
    },
    {
      "inputs": [],
      "name": "getUSDTDeposit",
      "outputs": [
        {
          "internalType": "uint256",
          "name": "",
          "type": "uint256"
        }
      ],
      "stateMutability": "view",
      "type": "function"
    },
    {
      "inputs": [
        {
          "internalType": "address",
          "name": "spender",
          "type": "address"
        },
        {
          "internalType": "uint256",
          "name": "addedValue",
          "type": "uint256"
        }
      ],
      "name": "increaseAllowance",
      "outputs": [
        {
          "internalType": "bool",
          "name": "",
          "type": "bool"
        }
      ],
      "stateMutability": "nonpayable",
      "type": "function"
    },
    {
      "inputs": [],
      "name": "name",
      "outputs": [
        {
          "internalType": "string",
          "name": "",
          "type": "string"
        }
      ],
      "stateMutability": "view",
      "type": "function"
    },
    {
      "inputs": [],
      "name": "owner",
      "outputs": [
        {
          "internalType": "address",
          "name": "",
          "type": "address"
        }
      ],
      "stateMutability": "view",
      "type": "function"
    },
    {
      "inputs": [],
      "name": "renounceOwnership",
      "outputs": [],
      "stateMutability": "nonpayable",
      "type": "function"
    },
    {
      "inputs": [],
      "name": "symbol",
      "outputs": [
        {
          "internalType": "string",
          "name": "",
          "type": "string"
        }
      ],
      "stateMutability": "view",
      "type": "function"
    },
    {
      "inputs": [],
      "name": "totalSupply",
      "outputs": [
        {
          "internalType": "uint256",
          "name": "",
          "type": "uint256"
        }
      ],
      "stateMutability": "view",
      "type": "function"
    },
    {
      "inputs": [
        {
          "internalType": "address",
          "name": "recipient",
          "type": "address"
        },
        {
          "internalType": "uint256",
          "name": "amount",
          "type": "uint256"
        }
      ],
      "name": "transfer",
      "outputs": [
        {
          "internalType": "bool",
          "name": "",
          "type": "bool"
        }
      ],
      "stateMutability": "nonpayable",
      "type": "function"
    },
    {
      "inputs": [
        {
          "internalType": "address",
          "name": "sender",
          "type": "address"
        },
        {
          "internalType": "address",
          "name": "recipient",
          "type": "address"
        },
        {
          "internalType": "uint256",
          "name": "amount",
          "type": "uint256"
        }
      ],
      "name": "transferFrom",
      "outputs": [
        {
          "internalType": "bool",
          "name": "",
          "type": "bool"
        }
      ],
      "stateMutability": "nonpayable",
      "type": "function"
    },
    {
      "inputs": [
        {
          "internalType": "address",
          "name": "newOwner",
          "type": "address"
        }
      ],
      "name": "transferOwnership",
      "outputs": [],
      "stateMutability": "nonpayable",
      "type": "function"
    },
    {
      "inputs": [
        {
          "internalType": "uint256",
          "name": "_amount",
          "type": "uint256"
        }
      ],
      "name": "withdrawBUSD",
      "outputs": [],
      "stateMutability": "payable",
      "type": "function"
    },
    {
      "inputs": [
        {
          "internalType": "uint256",
          "name": "_amount",
          "type": "uint256"
        }
      ],
      "name": "withdrawUSDT",
      "outputs": [],
      "stateMutability": "payable",
      "type": "function"
    }
  ],
  "bytecode": "0x60806040523480156200001157600080fd5b50604051620017e4380380620017e4833981016040819052620000349162000215565b604080518082018252600681526509ac2e8e4d2f60d31b602080830191825283518085019094526004845263161554d160e21b9084015281519192916200007e9160039162000152565b5080516200009490600490602084019062000152565b505050620000b1620000ab620000fc60201b60201c565b62000100565b600680546001600160a01b039384166001600160a01b03199182168117909255600780549390941692811683179093556008805484169091179055600980549092161790556200028a565b3390565b600580546001600160a01b038381166001600160a01b0319831681179093556040519116919082907f8be0079c531659141344cd1fd0a4f28419497f9722a3daafe3b4186f6b6457e090600090a35050565b82805462000160906200024d565b90600052602060002090601f016020900481019282620001845760008555620001cf565b82601f106200019f57805160ff1916838001178555620001cf565b82800160010185558215620001cf579182015b82811115620001cf578251825591602001919060010190620001b2565b50620001dd929150620001e1565b5090565b5b80821115620001dd5760008155600101620001e2565b80516001600160a01b03811681146200021057600080fd5b919050565b600080604083850312156200022957600080fd5b6200023483620001f8565b91506200024460208401620001f8565b90509250929050565b600181811c908216806200026257607f821691505b602082108114156200028457634e487b7160e01b600052602260045260246000fd5b50919050565b61154a806200029a6000396000f3fe6080604052600436106101355760003560e01c80638da5cb5b116100ab578063c411fcd81161006f578063c411fcd81461034c578063cc3bcaf31461036c578063dd62ed3e1461037f578063e7c80f17146103c5578063f2fde38b146103d8578063fd289b1e146103f857600080fd5b80638da5cb5b146102a557806395d89b41146102d7578063a457c2d7146102ec578063a9059cbb1461030c578063ac4b457a1461032c57600080fd5b806339509351116100fd57806339509351146101f05780633ea521ef1461021057806346bfe1df14610225578063617509aa1461023857806370a082311461025a578063715018a61461029057600080fd5b806306fdde031461013a578063095ea7b31461016557806318160ddd1461019557806323b872dd146101b4578063313ce567146101d4575b600080fd5b34801561014657600080fd5b5061014f61041d565b60405161015c919061129f565b60405180910390f35b34801561017157600080fd5b50610185610180366004611310565b6104af565b604051901515815260200161015c565b3480156101a157600080fd5b506002545b60405190815260200161015c565b3480156101c057600080fd5b506101856101cf36600461133a565b6104c5565b3480156101e057600080fd5b506040516012815260200161015c565b3480156101fc57600080fd5b5061018561020b366004611310565b610574565b61022361021e366004611376565b6105b0565b005b610223610233366004611376565b610799565b34801561024457600080fd5b50336000908152600a60205260409020546101a6565b34801561026657600080fd5b506101a661027536600461138f565b6001600160a01b031660009081526020819052604090205490565b34801561029c57600080fd5b50610223610883565b3480156102b157600080fd5b506005546001600160a01b03165b6040516001600160a01b03909116815260200161015c565b3480156102e357600080fd5b5061014f6108e9565b3480156102f857600080fd5b50610185610307366004611310565b6108f8565b34801561031857600080fd5b50610185610327366004611310565b610991565b34801561033857600080fd5b506008546102bf906001600160a01b031681565b34801561035857600080fd5b506009546102bf906001600160a01b031681565b61022361037a366004611376565b61099e565b34801561038b57600080fd5b506101a661039a3660046113b1565b6001600160a01b03918216600090815260016020908152604080832093909416825291909152205490565b6102236103d3366004611376565b610b82565b3480156103e457600080fd5b506102236103f336600461138f565b610c69565b34801561040457600080fd5b50336000908152600a60205260409020600101546101a6565b60606003805461042c906113e4565b80601f0160208091040260200160405190810160405280929190818152602001828054610458906113e4565b80156104a55780601f1061047a576101008083540402835291602001916104a5565b820191906000526020600020905b81548152906001019060200180831161048857829003601f168201915b5050505050905090565b60006104bc338484610d34565b50600192915050565b60006104d2848484610e59565b6001600160a01b03841660009081526001602090815260408083203384529091529020548281101561055c5760405162461bcd60e51b815260206004820152602860248201527f45524332303a207472616e7366657220616d6f756e74206578636565647320616044820152676c6c6f77616e636560c01b60648201526084015b60405180910390fd5b6105698533858403610d34565b506001949350505050565b3360008181526001602090815260408083206001600160a01b038716845290915281205490916104bc9185906105ab908690611435565b610d34565b336000908152600a60205260409020548111156106225760405162461bcd60e51b815260206004820152602a60248201527f6465706f7369746564206c657373207468616e20796f752077616e74207769746044820152691a191c985dc81554d11560b21b6064820152608401610553565b60085460405163095ea7b360e01b8152306004820152602481018390526001600160a01b039091169063095ea7b390604401602060405180830381600087803b15801561066e57600080fd5b505af1158015610682573d6000803e3d6000fd5b505050506040513d601f19601f820116820180604052508101906106a6919061144d565b506008546040516323b872dd60e01b81526001600160a01b03909116906323b872dd906106db9030903390869060040161146f565b602060405180830381600087803b1580156106f557600080fd5b505af1158015610709573d6000803e3d6000fd5b505050506040513d601f19601f8201168201806040525081019061072d919061144d565b50336000908152600a60205260408120805483929061074d908490611493565b9091555061075d90503382611028565b7fb80d46a1fcb96f3896e038df66c1242504a8e49effecd0bf2473574707ca0121338260405161078e9291906114aa565b60405180910390a150565b6009546040516323b872dd60e01b81526001600160a01b03909116906323b872dd906107cd9033903090869060040161146f565b602060405180830381600087803b1580156107e757600080fd5b505af11580156107fb573d6000803e3d6000fd5b505050506040513d601f19601f8201168201806040525081019061081f919061144d565b50336000908152600a602052604081206001018054839290610842908490611435565b909155506108529050338261116e565b7f6f85d9948d6ca3dd6ce6ce7d175da22b4e865827ae6fcd530ec7edac1240f928338260405161078e9291906114df565b6005546001600160a01b031633146108dd5760405162461bcd60e51b815260206004820181905260248201527f4f776e61626c653a2063616c6c6572206973206e6f7420746865206f776e65726044820152606401610553565b6108e7600061124d565b565b60606004805461042c906113e4565b3360009081526001602090815260408083206001600160a01b03861684529091528120548281101561097a5760405162461bcd60e51b815260206004820152602560248201527f45524332303a2064656372656173656420616c6c6f77616e63652062656c6f77604482015264207a65726f60d81b6064820152608401610553565b6109873385858403610d34565b5060019392505050565b60006104bc338484610e59565b336000908152600a6020526040902060010154811115610a135760405162461bcd60e51b815260206004820152602a60248201527f6465706f7369746564206c657373207468616e20796f752077616e74207769746044820152691a191c985dc8109554d160b21b6064820152608401610553565b60095460405163095ea7b360e01b8152306004820152602481018390526001600160a01b039091169063095ea7b390604401602060405180830381600087803b158015610a5f57600080fd5b505af1158015610a73573d6000803e3d6000fd5b505050506040513d601f19601f82011682018060405250810190610a97919061144d565b506009546040516323b872dd60e01b81526001600160a01b03909116906323b872dd90610acc9030903390869060040161146f565b602060405180830381600087803b158015610ae657600080fd5b505af1158015610afa573d6000803e3d6000fd5b505050506040513d601f19601f82011682018060405250810190610b1e919061144d565b50336000908152600a602052604081206001018054839290610b41908490611493565b90915550610b5190503382611028565b7fb80d46a1fcb96f3896e038df66c1242504a8e49effecd0bf2473574707ca0121338260405161078e9291906114df565b6008546040516323b872dd60e01b81526001600160a01b03909116906323b872dd90610bb69033903090869060040161146f565b602060405180830381600087803b158015610bd057600080fd5b505af1158015610be4573d6000803e3d6000fd5b505050506040513d601f19601f82011682018060405250810190610c08919061144d565b50336000908152600a602052604081208054839290610c28908490611435565b90915550610c389050338261116e565b7f6f85d9948d6ca3dd6ce6ce7d175da22b4e865827ae6fcd530ec7edac1240f928338260405161078e9291906114aa565b6005546001600160a01b03163314610cc35760405162461bcd60e51b815260206004820181905260248201527f4f776e61626c653a2063616c6c6572206973206e6f7420746865206f776e65726044820152606401610553565b6001600160a01b038116610d285760405162461bcd60e51b815260206004820152602660248201527f4f776e61626c653a206e6577206f776e657220697320746865207a65726f206160448201526564647265737360d01b6064820152608401610553565b610d318161124d565b50565b6001600160a01b038316610d965760405162461bcd60e51b8152602060048201526024808201527f45524332303a20617070726f76652066726f6d20746865207a65726f206164646044820152637265737360e01b6064820152608401610553565b6001600160a01b038216610df75760405162461bcd60e51b815260206004820152602260248201527f45524332303a20617070726f766520746f20746865207a65726f206164647265604482015261737360f01b6064820152608401610553565b6001600160a01b0383811660008181526001602090815260408083209487168084529482529182902085905590518481527f8c5be1e5ebec7d5bd14f71427d1e84f3dd0314c0f7b2291e5b200ac8c7c3b92591015b60405180910390a3505050565b6001600160a01b038316610ebd5760405162461bcd60e51b815260206004820152602560248201527f45524332303a207472616e736665722066726f6d20746865207a65726f206164604482015264647265737360d81b6064820152608401610553565b6001600160a01b038216610f1f5760405162461bcd60e51b815260206004820152602360248201527f45524332303a207472616e7366657220746f20746865207a65726f206164647260448201526265737360e81b6064820152608401610553565b6001600160a01b03831660009081526020819052604090205481811015610f975760405162461bcd60e51b815260206004820152602660248201527f45524332303a207472616e7366657220616d6f756e7420657863656564732062604482015265616c616e636560d01b6064820152608401610553565b6001600160a01b03808516600090815260208190526040808220858503905591851681529081208054849290610fce908490611435565b92505081905550826001600160a01b0316846001600160a01b03167fddf252ad1be2c89b69c2b068fc378daa952ba7f163c4a11628f55a4df523b3ef8460405161101a91815260200190565b60405180910390a350505050565b6001600160a01b0382166110885760405162461bcd60e51b815260206004820152602160248201527f45524332303a206275726e2066726f6d20746865207a65726f206164647265736044820152607360f81b6064820152608401610553565b6001600160a01b038216600090815260208190526040902054818110156110fc5760405162461bcd60e51b815260206004820152602260248201527f45524332303a206275726e20616d6f756e7420657863656564732062616c616e604482015261636560f01b6064820152608401610553565b6001600160a01b038316600090815260208190526040812083830390556002805484929061112b908490611493565b90915550506040518281526000906001600160a01b038516907fddf252ad1be2c89b69c2b068fc378daa952ba7f163c4a11628f55a4df523b3ef90602001610e4c565b6001600160a01b0382166111c45760405162461bcd60e51b815260206004820152601f60248201527f45524332303a206d696e7420746f20746865207a65726f2061646472657373006044820152606401610553565b80600260008282546111d69190611435565b90915550506001600160a01b03821660009081526020819052604081208054839290611203908490611435565b90915550506040518181526001600160a01b038316906000907fddf252ad1be2c89b69c2b068fc378daa952ba7f163c4a11628f55a4df523b3ef9060200160405180910390a35050565b600580546001600160a01b038381166001600160a01b0319831681179093556040519116919082907f8be0079c531659141344cd1fd0a4f28419497f9722a3daafe3b4186f6b6457e090600090a35050565b600060208083528351808285015260005b818110156112cc578581018301518582016040015282016112b0565b818111156112de576000604083870101525b50601f01601f1916929092016040019392505050565b80356001600160a01b038116811461130b57600080fd5b919050565b6000806040838503121561132357600080fd5b61132c836112f4565b946020939093013593505050565b60008060006060848603121561134f57600080fd5b611358846112f4565b9250611366602085016112f4565b9150604084013590509250925092565b60006020828403121561138857600080fd5b5035919050565b6000602082840312156113a157600080fd5b6113aa826112f4565b9392505050565b600080604083850312156113c457600080fd5b6113cd836112f4565b91506113db602084016112f4565b90509250929050565b600181811c908216806113f857607f821691505b6020821081141561141957634e487b7160e01b600052602260045260246000fd5b50919050565b634e487b7160e01b600052601160045260246000fd5b600082198211156114485761144861141f565b500190565b60006020828403121561145f57600080fd5b815180151581146113aa57600080fd5b6001600160a01b039384168152919092166020820152604081019190915260600190565b6000828210156114a5576114a561141f565b500390565b6001600160a01b039290921682526020820152606060408201819052600490820152631554d11560e21b608082015260a00190565b6001600160a01b03929092168252602082015260606040820181905260049082015263109554d160e21b608082015260a0019056fea264697066735822122004d8104e09f20f128d161373c0dbe3d3c3b667c15531722bd1465be8c15028c464736f6c63430008090033",
  "linkReferences": {},
  "deployedLinkReferences": {}
}