{
  "_format": "hh-sol-artifact-1",
  "contractName": "MatrixTemplate",
  "sourceName": "contracts/MatrixTemplate.sol",
  "abi": [
    {
      "inputs": [
        {
          "internalType": "address",
          "name": "_deployer",
          "type": "address"
        },
        {
          "internalType": "uint256",
          "name": "_index",
          "type": "uint256"
        },
        {
          "internalType": "address",
          "name": "_coreAddress",
          "type": "address"
        }
      ],
      "stateMutability": "nonpayable",
      "type": "constructor"
    },
    {
      "inputs": [],
      "name": "getLength",
      "outputs": [
        {
          "internalType": "uint256",
          "name": "length",
          "type": "uint256"
        }
      ],
      "stateMutability": "view",
      "type": "function"
    },
    {
      "inputs": [
        {
          "internalType": "address",
          "name": "wallet",
          "type": "address"
        }
      ],
      "name": "getUser",
      "outputs": [
        {
          "components": [
            {
              "internalType": "uint256",
              "name": "index",
              "type": "uint256"
            },
            {
              "internalType": "uint256",
              "name": "parent",
              "type": "uint256"
            },
            {
              "internalType": "bool",
              "name": "isRight",
              "type": "bool"
            },
            {
              "internalType": "uint256",
              "name": "plateau",
              "type": "uint256"
            },
            {
              "internalType": "bool",
              "name": "isValue",
              "type": "bool"
            }
          ],
          "internalType": "struct MatrixTemplate.User",
          "name": "user",
          "type": "tuple"
        }
      ],
      "stateMutability": "view",
      "type": "function"
    },
    {
      "inputs": [
        {
          "internalType": "address",
          "name": "wallet",
          "type": "address"
        }
      ],
      "name": "hasRegistered",
      "outputs": [
        {
          "internalType": "bool",
          "name": "",
          "type": "bool"
        }
      ],
      "stateMutability": "view",
      "type": "function"
    },
    {
      "inputs": [
        {
          "internalType": "address",
          "name": "wallet",
          "type": "address"
        }
      ],
      "name": "register",
      "outputs": [],
      "stateMutability": "nonpayable",
      "type": "function"
    }
  ],
  "bytecode": "0x60806040523480156200001157600080fd5b506040516200127738038062001277833981016040819052620000349162000244565b6040805160a08101825260008082526020808301828152838501838152606085018481526001608087018181526001600160a01b03808d1680895260038089528b8a208b51815597518886015595516002808901805492151560ff199384161790559551968801969096559151600496870180549115159190961617909455845480830186559487527f8a35acfbc15ff81a39ae7d344fd709f28e8600b4aa8c65c6b64bfe7fe36bd19b90940180546001600160a01b03199081168617909155865481169094178655899055805491881691909216179055835180820190945290835290916200012d91620006c962000167821b17901c565b6200015d604051806060016040528060278152602001620012506027913984620001b560201b6200070f1760201c565b505050506200030d565b620001b2816040516024016200017e9190620002cd565b60408051601f198184030181529190526020810180516001600160e01b0390811663104c13eb60e21b179091526200020616565b50565b620002028282604051602401620001ce929190620002e9565b60408051601f198184030181529190526020810180516001600160e01b039081166309710a9d60e41b179091526200020616565b5050565b80516a636f6e736f6c652e6c6f67602083016000808483855afa5050505050565b80516001600160a01b03811681146200023f57600080fd5b919050565b6000806000606084860312156200025a57600080fd5b620002658462000227565b9250602084015191506200027c6040850162000227565b90509250925092565b6000815180845260005b81811015620002ad576020818501810151868301820152016200028f565b506000602082860101526020601f19601f83011685010191505092915050565b602081526000620002e2602083018462000285565b9392505050565b604081526000620002fe604083018562000285565b90508260208301529392505050565b610f33806200031d6000396000f3fe608060405234801561001057600080fd5b506004361061004c5760003560e01c80634420e486146100515780636f77926b14610066578063a0d03526146100c8578063be1c766b14610107575b600080fd5b61006461005f366004610c76565b610118565b005b610079610074366004610c76565b610630565b6040516100bf9190600060a08201905082518252602083015160208301526040830151151560408301526060830151606083015260808301511515608083015292915050565b60405180910390f35b6100f76100d6366004610c76565b6001600160a01b031660009081526003602052604090206004015460ff1690565b60405190151581526020016100bf565b6004546040519081526020016100bf565b610130604051806020016040528060008152506106c9565b6101696040518060400160405280601581526020017413550e8817dc9959da5cdd195c8a0a481cdd185c9d605a1b81525060015461070f565b61019f6040518060a001604052806000815260200160008152602001600015158152602001600081526020016000151581525090565b600454600090610372906101b4906002610cbc565b604080517ff8f9cbfae6cc78fbefe7cdc3a1793dfcf4f0e8bbd8cec470b6a28a7a5a3e1efd81527ff5ecf1b3e9debc68e1d9cfabc5997135bfb7a7a3938b7b606b5b4b3f2f1f0ffe60208201527ff6e4ed9ff2d6b458eadcdf97bd91692de2d4da8fd2d0ac50c6ae9a8272523616818301527fc8c0b887b0a8a4489c948c7f847c6125746c645c544c444038302820181008ff60608201527ff7cae577eec2a03cf3bad76fb589591debb2dd67e0aa9834bea6925f6a4a2e0e60808201527fe39ed557db96902cd38ed14fad815115c786af479b7e8324736353433727170760a08201527fc976c13bb96e881cb166a933a55e490d9d56952b8d4e801485467d236242260660c08201527f753a6d1b65325d0c552a4d1345224105391a310b29122104190a11030902010060e0820152610100808201909252600160f81b6001600160801b68010000000000000000640100000000620100006010600460026000198c019081041790810417908104178881041790810417908104179081041790810417017e818283848586878898a8b8c8d8e8f929395969799a9b9d9e9faaeb6bedeeff0281900460ff039091015104600160ff1b909211020190565b9050600060028210156103875750600061039f565b61039c6000610397600285610ccf565b610758565b90505b60006103b081610397600186610ccf565b6004549091506000906103c4908390610ccf565b6103cf906001610cbc565b905060006103de826002610794565b905060006103ed8360026107a9565b905060018110156104005750600161040d565b61040a8282610cbc565b90505b6000600161041b8388610cbc565b6104259190610ccf565b6040805160a0810182526004548152602081018390526000918101829052606081018a9052600160808201529950909150839003610479578015610471576004546104719082906107b5565b600160408901525b60006004828154811061048e5761048e610ce2565b6000918252602090912001546002546001546040516337eb1d9f60e21b81526001600160a01b0393841660048201819052602482019290925290935091169063dfac767c90604401600060405180830381600087803b1580156104f057600080fd5b505af1158015610504573d6000803e3d6000fd5b5050505088600360008c6001600160a01b03166001600160a01b03168152602001908152602001600020600082015181600001556020820151816001015560408201518160020160006101000a81548160ff0219169083151502179055506060820151816003015560808201518160040160006101000a81548160ff02191690831515021790555090505060048a9080600181540180825580915050600190039060005260206000200160009091909190916101000a8154816001600160a01b0302191690836001600160a01b031602179055506105f0604051806020016040528060008152506106c9565b6106246040518060400160405280601381526020017213550e8817dc9959da5cdd195c8a0a48195b99606a1b8152506106c9565b50505050505050505050565b6106666040518060a001604052806000815260200160008152602001600015158152602001600081526020016000151581525090565b506001600160a01b0316600090815260036020818152604092839020835160a08101855281548152600182015492810192909252600281015460ff9081161515948301949094529182015460608201526004909101549091161515608082015290565b61070c816040516024016106dd9190610d3e565b60408051601f198184030181529190526020810180516001600160e01b031663104c13eb60e21b179052610c55565b50565b6107548282604051602401610725929190610d51565b60408051601f198184030181529190526020810180516001600160e01b03166309710a9d60e41b179052610c55565b5050565b6000825b8281101561078d5761076f816002610e57565b6107799083610cbc565b91508061078581610e63565b91505061075c565b5092915050565b60006107a08284610e92565b90505b92915050565b60006107a08284610ea6565b6107cd604051806020016040528060008152506106c9565b6107ff6040518060400160405280601181526020017013550e8817d9dbd55c0a0a481cdd185c9d607a1b8152506106c9565b61082d6040518060400160405280600c81526020016b3830b932b73a24b73232bc1d60a11b8152508361070f565b61085b6040518060400160405280600c81526020016b0c6eae4e4cadce892dcc8caf60a31b8152508261070f565b60006004838154811061087057610870610ce2565b60009182526020808320909101546001600160a01b03168083526003808352604093849020845160a0810186528154815260018201549481019490945260028082015460ff90811615159686019690965291810154606085015260040154909316151560808301529250905b816040015115610c1e57600060048360200151815481106108ff576108ff610ce2565b9060005260206000200160009054906101000a90046001600160a01b031690506109486040518060400160405280600481526020016369203d3d60e01b8152508360ff1661070f565b60038260ff1611610a4d576001546000036109cb5760025460015460405163c92cbc8b60e01b81526001600160a01b039092169163c92cbc8b9161099491859190600090600401610eba565b600060405180830381600087803b1580156109ae57600080fd5b505af11580156109c2573d6000803e3d6000fd5b50505050610b7e565b600154601303610a16578160ff16600303610a16576002805460015460405163c92cbc8b60e01b81526001600160a01b039092169263c92cbc8b926109949286929091600401610eba565b6002546001805460405163c92cbc8b60e01b81526001600160a01b039093169263c92cbc8b92610994928692909190600401610eba565b600154601303610ac5576002546001805460405163c92cbc8b60e01b81526001600160a01b039093169263c92cbc8b92610a8e928692909190600401610eba565b600060405180830381600087803b158015610aa857600080fd5b505af1158015610abc573d6000803e3d6000fd5b50505050610b2f565b6002546001805460405163c92cbc8b60e01b81526001600160a01b039093169263c92cbc8b92610afc928692909190600401610eba565b600060405180830381600087803b158015610b1657600080fd5b505af1158015610b2a573d6000803e3d6000fd5b505050505b8160ff16600503610b7e57610b786040518060400160405280601881526020017f476f696e6720746f20746865206e657874206d617472697800000000000000008152506106c9565b50610c1e565b600360006004856020015181548110610b9957610b99610ce2565b60009182526020808320909101546001600160a01b031683528281019390935260409182019020815160a08101835281548152600182015493810193909352600281015460ff90811615159284019290925260038101546060840152600401541615156080820152925081610c0d81610ede565b9250505060058160ff1611156108dc575b610c4e6040518060400160405280600f81526020016e13550e8817d9dbd55c0a0a48195b99608a1b8152506106c9565b5050505050565b80516a636f6e736f6c652e6c6f67602083016000808483855afa5050505050565b600060208284031215610c8857600080fd5b81356001600160a01b0381168114610c9f57600080fd5b9392505050565b634e487b7160e01b600052601160045260246000fd5b808201808211156107a3576107a3610ca6565b818103818111156107a3576107a3610ca6565b634e487b7160e01b600052603260045260246000fd5b6000815180845260005b81811015610d1e57602081850181015186830182015201610d02565b506000602082860101526020601f19601f83011685010191505092915050565b6020815260006107a06020830184610cf8565b604081526000610d646040830185610cf8565b90508260208301529392505050565b600181815b80851115610dae578160001904821115610d9457610d94610ca6565b80851615610da157918102915b93841c9390800290610d78565b509250929050565b600082610dc5575060016107a3565b81610dd2575060006107a3565b8160018114610de85760028114610df257610e0e565b60019150506107a3565b60ff841115610e0357610e03610ca6565b50506001821b6107a3565b5060208310610133831016604e8410600b8410161715610e31575081810a6107a3565b610e3b8383610d73565b8060001904821115610e4f57610e4f610ca6565b029392505050565b60006107a08383610db6565b600060018201610e7557610e75610ca6565b5060010190565b634e487b7160e01b600052601260045260246000fd5b600082610ea157610ea1610e7c565b500690565b600082610eb557610eb5610e7c565b500490565b6001600160a01b03939093168352602083019190915260ff16604082015260600190565b600060ff821660ff8103610ef457610ef4610ca6565b6001019291505056fea2646970667358221220419ea0b199fce1c2c4da1a69395e8c498e8d286959b64720cdda839d10606a2d64736f6c634300081100334d543a204465706c6f796564204d617472697854656d706c617465207769746820696e6465783a",
  "linkReferences": {},
  "deployedLinkReferences": {}
}