{
  "_format": "hh-sol-artifact-1",
  "contractName": "Core",
  "sourceName": "contracts/Core.sol",
  "abi": [
    {
      "inputs": [
        {
          "internalType": "address[6]",
          "name": "_sixFounders",
          "type": "address[6]"
        }
      ],
      "stateMutability": "payable",
      "type": "constructor"
    },
    {
      "anonymous": false,
      "inputs": [
        {
          "indexed": false,
          "internalType": "address",
          "name": "",
          "type": "address"
        },
        {
          "indexed": false,
          "internalType": "uint256",
          "name": "",
          "type": "uint256"
        }
      ],
      "name": "UserRegistered",
      "type": "event"
    },
    {
      "anonymous": false,
      "inputs": [
        {
          "indexed": false,
          "internalType": "address",
          "name": "",
          "type": "address"
        },
        {
          "indexed": false,
          "internalType": "uint8",
          "name": "",
          "type": "uint8"
        },
        {
          "indexed": false,
          "internalType": "uint256",
          "name": "",
          "type": "uint256"
        }
      ],
      "name": "UserUpdated",
      "type": "event"
    },
    {
      "stateMutability": "payable",
      "type": "fallback"
    },
    {
      "inputs": [
        {
          "internalType": "uint256",
          "name": "_level",
          "type": "uint256"
        }
      ],
      "name": "getLevelContract",
      "outputs": [
        {
          "internalType": "address",
          "name": "",
          "type": "address"
        }
      ],
      "stateMutability": "view",
      "type": "function"
    },
    {
      "inputs": [],
      "name": "getTenPercentOnceYear",
      "outputs": [],
      "stateMutability": "nonpayable",
      "type": "function"
    },
    {
      "inputs": [
        {
          "internalType": "address",
          "name": "_userAddress",
          "type": "address"
        }
      ],
      "name": "getUserFromCore",
      "outputs": [
        {
          "components": [
            {
              "internalType": "uint256",
              "name": "claims",
              "type": "uint256"
            },
            {
              "internalType": "uint256",
              "name": "gifts",
              "type": "uint256"
            },
            {
              "internalType": "uint256",
              "name": "level",
              "type": "uint256"
            },
            {
              "internalType": "address",
              "name": "whose",
              "type": "address"
            },
            {
              "internalType": "bool",
              "name": "isValue",
              "type": "bool"
            }
          ],
          "internalType": "struct Core.UserGlobal",
          "name": "user",
          "type": "tuple"
        }
      ],
      "stateMutability": "view",
      "type": "function"
    },
    {
      "inputs": [
        {
          "internalType": "uint256",
          "name": "_matrixIdx",
          "type": "uint256"
        },
        {
          "internalType": "address",
          "name": "_userWallet",
          "type": "address"
        }
      ],
      "name": "getUserFromMatrix",
      "outputs": [
        {
          "components": [
            {
              "internalType": "uint256",
              "name": "index",
              "type": "uint256"
            },
            {
              "internalType": "uint256",
              "name": "parent",
              "type": "uint256"
            },
            {
              "internalType": "bool",
              "name": "isRight",
              "type": "bool"
            },
            {
              "internalType": "uint256",
              "name": "plateau",
              "type": "uint256"
            },
            {
              "internalType": "bool",
              "name": "isValue",
              "type": "bool"
            }
          ],
          "internalType": "struct MatrixTemplate.User",
          "name": "user",
          "type": "tuple"
        }
      ],
      "stateMutability": "view",
      "type": "function"
    },
    {
      "inputs": [],
      "name": "payUnit",
      "outputs": [
        {
          "internalType": "uint256",
          "name": "",
          "type": "uint256"
        }
      ],
      "stateMutability": "view",
      "type": "function"
    },
    {
      "inputs": [
        {
          "internalType": "address",
          "name": "_whose",
          "type": "address"
        }
      ],
      "name": "register",
      "outputs": [],
      "stateMutability": "payable",
      "type": "function"
    },
    {
      "inputs": [
        {
          "internalType": "address",
          "name": "_wallet",
          "type": "address"
        },
        {
          "internalType": "uint256",
          "name": "_matrixIndex",
          "type": "uint256"
        }
      ],
      "name": "sendHalf",
      "outputs": [],
      "stateMutability": "nonpayable",
      "type": "function"
    },
    {
      "inputs": [
        {
          "internalType": "address",
          "name": "_userAddress",
          "type": "address"
        },
        {
          "internalType": "uint256",
          "name": "_matrixIndex",
          "type": "uint256"
        },
        {
          "internalType": "uint8",
          "name": "_field",
          "type": "uint8"
        }
      ],
      "name": "updateUser",
      "outputs": [],
      "stateMutability": "nonpayable",
      "type": "function"
    },
    {
      "inputs": [
        {
          "internalType": "uint256",
          "name": "_amount",
          "type": "uint256"
        }
      ],
      "name": "withdrawClaim",
      "outputs": [],
      "stateMutability": "nonpayable",
      "type": "function"
    },
    {
      "stateMutability": "payable",
      "type": "receive"
    }
  ],
  "bytecode": "0x6080604052662386f26fc100006000556013600155600160195560405162003dfe38038062003dfe8339810160408190526200003b916200024a565b8051601680546001600160a01b0319166001600160a01b0390921691909117905560005b6006811015620001785760008082116200007c57508151620000a5565b826200008a60018462000310565b600681106200009d576200009d620002e4565b602002015190505b6040518060a0016040528060008152602001600081526020016001548152602001826001600160a01b031681526020016001151581525060176000858560068110620000f557620000f5620002e4565b602090810291909101516001600160a01b039081168352828201939093526040918201600020845181559084015160018201559083015160028201556060830151600390910180546080909401511515600160a01b026001600160a81b0319909416919092161791909117905550806200016f816200032c565b9150506200005f565b5060005b60015481116200021357600081308460405162000199906200021f565b620001a79392919062000348565b604051809103906000f080158015620001c4573d6000803e3d6000fd5b5090508060028360148110620001de57620001de620002e4565b0180546001600160a01b0319166001600160a01b039290921691909117905550806200020a816200032c565b9150506200017c565b5050426018556200039b565b611f178062001ee783390190565b80516001600160a01b03811681146200024557600080fd5b919050565b600060c082840312156200025d57600080fd5b82601f8301126200026d57600080fd5b60405160c081016001600160401b03811182821017156200029e57634e487b7160e01b600052604160045260246000fd5b6040528060c0840185811115620002b457600080fd5b845b81811015620002d957620002ca816200022d565b835260209283019201620002b6565b509195945050505050565b634e487b7160e01b600052603260045260246000fd5b634e487b7160e01b600052601160045260246000fd5b81810381811115620003265762000326620002fa565b92915050565b600060018201620003415762000341620002fa565b5060010190565b8381526001600160a01b03838116602080840191909152610100830191604084018560005b60068110156200038e5781518416835291840191908401906001016200036d565b5050505050949350505050565b611b3c80620003ab6000396000f3fe6080604052600436106100915760003560e01c806390e7af8f11610063578063a224dcb71161004b578063a224dcb714610267578063c92cbc8b14610287578063dfac767c146102a757005b806390e7af8f1461020b57806394328eab1461024357005b80632c4d363a146101075780634420e4861461011c5780635f8e7d031461012f5780638212e2bb146101a557005b36610105576019546001146100ed5760405162461bcd60e51b815260206004820152601560248201527f4e6f207265656e7472616e63792061747461636b21000000000000000000000060448201526064015b60405180910390fd5b60026019556100fc33346102c7565b60016019819055005b005b34801561011357600080fd5b50610105610642565b61010561012a36600461184f565b610958565b34801561013b57600080fd5b5061014f61014a36600461184f565b610cf6565b60405161019c9190600060a0820190508251825260208301516020830152604083015160408301526001600160a01b03606084015116606083015260808301511515608083015292915050565b60405180910390f35b3480156101b157600080fd5b506101c56101c036600461186a565b610d98565b60405161019c9190600060a08201905082518252602083015160208301526040830151151560408301526060830151606083015260808301511515608083015292915050565b34801561021757600080fd5b5061022b610226366004611896565b610e6e565b6040516001600160a01b03909116815260200161019c565b34801561024f57600080fd5b5061025960005481565b60405190815260200161019c565b34801561027357600080fd5b50610105610282366004611896565b610e94565b34801561029357600080fd5b506101056102a23660046118af565b611020565b3480156102b357600080fd5b506101056102c23660046118f5565b6113e1565b600080600061030a6040518060400160405280601c81526020017f6d61747269636573526567697374726174696f6e2073746172746564000000008152506114f7565b61031385611553565b6001600160a01b03851660009081526017602052604090206003015461034290600160a01b900460ff166115b4565b6001600160a01b038516600090815260176020526040902060030154600160a01b900460ff161561040c576001600160a01b03851660009081526017602052604090205461039190859061160e565b6001600160a01b0386166000908152601760205260409020600201549093506103bb90600161160e565b91506103fc6040518060400160405280600781526020017f6c6576656c2b2b0000000000000000000000000000000000000000000000000081525083611620565b6104058261167e565b9050610416565b5050600080548392505b6013821161063b575b80831061061f576001600160a01b038516600090815260176020526040902060030154600160a01b900460ff1615610478576001600160a01b03851660009081526017602052604090206002810183905583905561050e565b6040805160a081018252848152600060208083018281528385018381526016546001600160a01b03908116606087019081526001608088018181528e84168852601790965297909520955186559151958501959095559351600284015590516003909201805491511515600160a01b0274ffffffffffffffffffffffffffffffffffffffffff1990921692909316919091171790555b600282601481106105215761052161191f565b0154604051632210724360e11b81526001600160a01b03878116600483015290911690634420e48690602401600060405180830381600087803b15801561056757600080fd5b505af115801561057b573d6000803e3d6000fd5b505050506105a06040518060600160405280602f8152602001611ad8602f91396114f7565b6105ab8286866116b9565b604080516001600160a01b0387168152602081018490527fe29d35093005f4d575e1003753426b57a7f64378ba73332eef9c6ccc2b8decd6910160405180910390a1821561061a576105fd8382611728565b925061060a816002611734565b905061061782600161160e565b91505b61041f565b6001600160a01b03851660009081526017602052604090208390555b5050505050565b6016546001600160a01b0316331461069c5760405162461bcd60e51b815260206004820152601f60248201527f796f7520686176656e27742072696768747320666f722077697468647261770060448201526064016100e4565b47806106ea5760405162461bcd60e51b815260206004820152601060248201527f62616c616e636520697320656d7074790000000000000000000000000000000060448201526064016100e4565b61072b6040518060400160405280601481526020017f6c6173745570646174656420676c6f62616c3a20000000000000000000000000815250601854611620565b61076a6040518060400160405280601581526020017f626c6f636b2e74696d657374616d70206e6f773a20000000000000000000000081525042611620565b60006107966018610790603c610790603c6107906018544261172890919063ffffffff16565b90611740565b905061016d8110156107ea5760405162461bcd60e51b815260206004820152601960248201527f61207965617220686173206e6f7420796574207061737365640000000000000060448201526064016100e4565b60006107f783600a611740565b604051909150600090339083908381818185875af1925050503d806000811461083c576040519150601f19603f3d011682016040523d82523d6000602084013e610841565b606091505b50509050806108925760405162461bcd60e51b815260206004820152601460248201527f4661696c656420746f2073656e6420424e42203500000000000000000000000060448201526064016100e4565b4260185560408051808201909152600a81527f64617973446966663a200000000000000000000000000000000000000000000060208201526108d49084611620565b6109136040518060400160405280600981526020017f62616c616e63653a20000000000000000000000000000000000000000000000081525085611620565b6109526040518060400160405280600e81526020017f312f31302062616c616e63653a2000000000000000000000000000000000000081525083611620565b50505050565b6019546001146109aa5760405162461bcd60e51b815260206004820152601560248201527f4e6f207265656e7472616e63792061747461636b21000000000000000000000060448201526064016100e4565b600260195533600090815260176020526040902060030154600160a01b900460ff1615610a195760405162461bcd60e51b815260206004820152601760248201527f7573657220616c7265616479207265676973746572656400000000000000000060448201526064016100e4565b6001600160a01b038116600090815260176020526040812060030154600160a01b900460ff1615610a4b575080610a59565b506016546001600160a01b03165b600080546001600160a01b0383168252601760205260408220600101541015610b1457600054341015610af45760405162461bcd60e51b815260206004820152602b60248201527f796f752070616964206c657373207468616e2074686520636f7374206f66207260448201527f6567697374726174696f6e00000000000000000000000000000000000000000060648201526084016100e4565b600054341115610b0f57600054610b0c903490611728565b90505b610b5a565b600080546001600160a01b03841682526017602052604090912060010154610b3b91611728565b6001600160a01b03831660009081526017602052604090206001015550345b6040805160a081018252600080825260208083018281528385018381526001600160a01b03808916606087019081526001608088018181523388526017909652978620965187559251968601969096555160028086019190915590516003909401805492511515600160a01b0274ffffffffffffffffffffffffffffffffffffffffff199093169490951693909317179092550154604051632210724360e11b81523360048201526001600160a01b0390911690634420e48690602401600060405180830381600087803b158015610c3157600080fd5b505af1158015610c45573d6000803e3d6000fd5b505050506000811115610cec57604051600090339083908381818185875af1925050503d8060008114610c94576040519150601f19603f3d011682016040523d82523d6000602084013e610c99565b606091505b5050905080610cea5760405162461bcd60e51b815260206004820152601460248201527f4661696c656420746f2073656e6420424e42203300000000000000000000000060448201526064016100e4565b505b5050600160195550565b610d336040518060a0016040528060008152602001600081526020016000815260200160006001600160a01b031681526020016000151581525090565b506001600160a01b03908116600090815260176020908152604091829020825160a081018452815481526001820154928101929092526002810154928201929092526003909101549182166060820152600160a01b90910460ff161515608082015290565b610dce6040518060a001604052806000815260200160008152602001600015158152602001600081526020016000151581525090565b60028360148110610de157610de161191f565b01546040517f6f77926b0000000000000000000000000000000000000000000000000000000081526001600160a01b03848116600483015290911690636f77926b9060240160a060405180830381865afa158015610e43573d6000803e3d6000fd5b505050506040513d601f19601f82011682018060405250810190610e679190611945565b9392505050565b600060028260148110610e8357610e8361191f565b01546001600160a01b031692915050565b33600090815260176020526040902054811015610f6f5733600090815260176020526040902054610ec59082611728565b3360008181526017602052604080822093909355915183908381818185875af1925050503d8060008114610f15576040519150601f19603f3d011682016040523d82523d6000602084013e610f1a565b606091505b5050905080610f6b5760405162461bcd60e51b815260206004820152601460248201527f4661696c656420746f2073656e6420424e42203100000000000000000000000060448201526064016100e4565b5050565b33600081815260176020526040808220805490839055905190929083908381818185875af1925050503d8060008114610fc4576040519150601f19603f3d011682016040523d82523d6000602084013e610fc9565b606091505b505090508061101a5760405162461bcd60e51b815260206004820152601460248201527f4661696c656420746f2073656e6420424e42203200000000000000000000000060448201526064016100e4565b50505b50565b6110626040518060400160405280601d81526020017f7570646174655573657220737461727465642c206669656c64206973200000008152508260ff16611620565b6110a06040518060400160405280601a81526020017f5f75736572416464726573732c205f6d6174726978496e6465780000000000008152506114f7565b6110aa838361174c565b6110b3336117b4565b6110ff5760405162461bcd60e51b815260206004820152601060248201527f6163636573732064656e6965642030310000000000000000000000000000000060448201526064016100e4565b600061110a8361167e565b905060008260ff16600003611160576001600160a01b03851660009081526017602052604090206001015461113f908361160e565b6001600160a01b03861660009081526017602052604090206001015561120c565b8260ff166001036111b0576001600160a01b03851660009081526017602052604090205461118e908361160e565b6001600160a01b0386166000908152601760205260409020819055905061120c565b8260ff1660020361120c576001600160a01b0380861660009081526017602052604080822060030154909216808252919020546111ed908461160e565b6001600160a01b03909116600090815260176020526040902081905590505b6000611219836002611734565b90506112596040518060400160405280601281526020017f436f72652d3e75706461746555736572282900000000000000000000000000008152506114f7565b6112976040518060400160405280600681526020017f544f444f3a3100000000000000000000000000000000000000000000000000008152506114f7565b6112d66040518060400160405280600981526020017f6e65656456616c7565000000000000000000000000000000000000000000000081525082611620565b6113156040518060400160405280600881526020017f6e657756616c756500000000000000000000000000000000000000000000000081525083611620565b80821015801561133357506016546001600160a01b03878116911614155b801561133f5750601385105b1561138d576113826040518060400160405280601781526020017f6d61747269636573526567697374726174696f6e2e213f0000000000000000008152506114f7565b61138d8660006102c7565b604080516001600160a01b038816815260ff861660208201529081018290527f5bb010dc69d7527dd8427d347a09974d8085a9e2874e9eb9bd28fb234145c3e89060600160405180910390a1505050505050565b6113ea336117b4565b6114365760405162461bcd60e51b815260206004820181905260248201527f6163636573732064656e69656420666f7220433a3a5f73656e6448616c66282960448201526064016100e4565b60138110611442575050565b600061145260026107908461167e565b90506000836001600160a01b03168260405160006040518083038185875af1925050503d80600081146114a1576040519150601f19603f3d011682016040523d82523d6000602084013e6114a6565b606091505b50509050806109525760405162461bcd60e51b815260206004820152601460248201527f4661696c656420746f2073656e6420424e42203400000000000000000000000060448201526064016100e4565b61101d8160405160240161150b9190611a14565b60408051601f198184030181529190526020810180516001600160e01b03167f41304fac00000000000000000000000000000000000000000000000000000000179052611812565b6040516001600160a01b038216602482015261101d9060440160408051601f198184030181529190526020810180516001600160e01b03167f2c2ecbc200000000000000000000000000000000000000000000000000000000179052611812565b604051811515602482015261101d9060440160408051601f198184030181529190526020810180516001600160e01b03167f32458eed00000000000000000000000000000000000000000000000000000000179052611812565b6000610e678284611a3d565b92915050565b610f6b8282604051602401611636929190611a50565b60408051601f198184030181529190526020810180516001600160e01b03167f9710a9d000000000000000000000000000000000000000000000000000000000179052611812565b60008054821561161a5760005b838110156116b25761169e826002611734565b9150806116aa81611a72565b91505061168b565b5092915050565b604051602481018490526001600160a01b03831660448201526064810182905261101a9060840160408051601f198184030181529190526020810180516001600160e01b03167f884343aa00000000000000000000000000000000000000000000000000000000179052611812565b6000610e678284611a8b565b6000610e678284611a9e565b6000610e678284611ab5565b6040516001600160a01b038316602482015260448101829052610f6b9060640160408051601f198184030181529190526020810180516001600160e01b03167f2243cfa300000000000000000000000000000000000000000000000000000000179052611812565b6000805b601481101561180957826001600160a01b0316600282601481106117de576117de61191f565b01546001600160a01b0316036117f75750600192915050565b8061180181611a72565b9150506117b8565b50600092915050565b80516a636f6e736f6c652e6c6f67602083016000808483855afa5050505050565b80356001600160a01b038116811461184a57600080fd5b919050565b60006020828403121561186157600080fd5b610e6782611833565b6000806040838503121561187d57600080fd5b8235915061188d60208401611833565b90509250929050565b6000602082840312156118a857600080fd5b5035919050565b6000806000606084860312156118c457600080fd5b6118cd84611833565b925060208401359150604084013560ff811681146118ea57600080fd5b809150509250925092565b6000806040838503121561190857600080fd5b61191183611833565b946020939093013593505050565b634e487b7160e01b600052603260045260246000fd5b8051801515811461184a57600080fd5b600060a0828403121561195757600080fd5b60405160a0810181811067ffffffffffffffff8211171561198857634e487b7160e01b600052604160045260246000fd5b806040525082518152602083015160208201526119a760408401611935565b6040820152606083015160608201526119c260808401611935565b60808201529392505050565b6000815180845260005b818110156119f4576020818501810151868301820152016119d8565b506000602082860101526020601f19601f83011685010191505092915050565b602081526000610e6760208301846119ce565b634e487b7160e01b600052601160045260246000fd5b8082018082111561161a5761161a611a27565b604081526000611a6360408301856119ce565b90508260208301529392505050565b600060018201611a8457611a84611a27565b5060010190565b8181038181111561161a5761161a611a27565b808202811582820484141761161a5761161a611a27565b600082611ad257634e487b7160e01b600052601260045260246000fd5b50049056fe6d61747269636573526567697374726174696f6e207265676973746572206e657874206c6576656c206d6174726978a26469706673582212201451fc2c688dd29a83c045fa81493dc382846d815a10a83c789f5b65f6e2ba6664736f6c6343000811003360806040523480156200001157600080fd5b5060405162001f1738038062001f17833981016040819052620000349162000810565b620000706040518060400160405280600e81526020016d26aa1d21a7a729aa292aa1aa27a960911b8152506200024360201b620006491760201c565b60005b60068160ff16101562000216576000806000620000d06040518060400160405280601a81526020017f636f6e7374727563746f722063616c63557365724461746128290000000000008152506200024360201b620006491760201c565b620000da62000291565b6040805160a0810182526003548152602081018590526000918101829052606081018490526001608082015293965091945092508290036200011e57600160408201525b8060026000888860ff16600681106200013b576200013b620008be565b602090810291909101516001600160a01b031682528181019290925260409081016000208351815591830151600183015582015160028201805491151560ff19928316179055606083015160038084019190915560809093015160049092018054921515929091169190911790558660ff871660068110620001c157620001c1620008be565b6020908102919091015182546001810184556000938452919092200180546001600160a01b0319166001600160a01b03909216919091179055508392506200020d9150829050620008ea565b91505062000073565b5050600091909155600180546001600160a01b0319166001600160a01b0390921691909117905562000b24565b6200028e816040516024016200025a919062000954565b60408051601f198184030181529190526020810180516001600160e01b0390811663104c13eb60e21b17909152620006e616565b50565b60008060008062000479620002bb60026003805490506200070760201b620006a81790919060201c565b604080517ff8f9cbfae6cc78fbefe7cdc3a1793dfcf4f0e8bbd8cec470b6a28a7a5a3e1efd81527ff5ecf1b3e9debc68e1d9cfabc5997135bfb7a7a3938b7b606b5b4b3f2f1f0ffe60208201527ff6e4ed9ff2d6b458eadcdf97bd91692de2d4da8fd2d0ac50c6ae9a8272523616818301527fc8c0b887b0a8a4489c948c7f847c6125746c645c544c444038302820181008ff60608201527ff7cae577eec2a03cf3bad76fb589591debb2dd67e0aa9834bea6925f6a4a2e0e60808201527fe39ed557db96902cd38ed14fad815115c786af479b7e8324736353433727170760a08201527fc976c13bb96e881cb166a933a55e490d9d56952b8d4e801485467d236242260660c08201527f753a6d1b65325d0c552a4d1345224105391a310b29122104190a11030902010060e0820152610100808201909252600160f81b6001600160801b68010000000000000000640100000000620100006010600460026000198c019081041790810417908104178881041790810417908104179081041790810417017e818283848586878898a8b8c8d8e8f929395969799a9b9d9e9faaeb6bedeeff0281900460ff039091015104600160ff1b909211020190565b9050620004b260405180604001604052806008815260200167383630ba32b0ba9d60c11b815250826200071e60201b620006bd1760201c565b60006002821015620004c757506000620004f1565b620004ee6000620004e86002856200076f60201b6200071f1790919060201c565b6200077d565b90505b6000620005146000620004e86001866200076f60201b6200071f1790919060201c565b905062000556604051806040016040528060118152602001700383932bb34b7bab9aa37ba30b61034b99607d1b815250826200071e60201b620006bd1760201c565b6003546000906200056990839062000969565b620005769060016200097f565b9050620005bb6040518060400160405280600f81526020016e24b73234b1b2b9973632b733ba341d60891b8152506003805490506200071e60201b620006bd1760201c565b620005f56040518060400160405280600b81526020016a31bab93932b73a273ab69d60a91b815250826200071e60201b620006bd1760201c565b600062000612600283620007c160201b6200072b1790919060201c565b9050600062000631600284620007cf60201b620007371790919060201c565b90506001811015620006465750600162000663565b6200066082826200070760201b620006a81790919060201c565b90505b600062000699620006846001846200076f60201b6200071f1790919060201c565b876200070760201b620006a81790919060201c565b9050620006d66040518060400160405280600c81526020016b3830b932b73a24b73232bc1d60a11b815250826200071e60201b620006bd1760201c565b9995985090965093945050505050565b80516a636f6e736f6c652e6c6f67602083016000808483855afa5050505050565b60006200071582846200097f565b90505b92915050565b6200076b82826040516024016200073792919062000995565b60408051601f198184030181529190526020810180516001600160e01b039081166309710a9d60e41b17909152620006e616565b5050565b600062000715828462000969565b6000825b82811015620007ba576200079781600262000ab6565b620007a390836200097f565b915080620007b18162000ac4565b91505062000781565b5092915050565b600062000715828462000af6565b600062000715828462000b0d565b80516001600160a01b0381168114620007f557600080fd5b919050565b634e487b7160e01b600052604160045260246000fd5b60008060006101008085870312156200082857600080fd5b8451935060206200083b818701620007dd565b935086605f8701126200084d57600080fd5b60405160c081016001600160401b0381118282101715620008725762000872620007fa565b6040529186019180888411156200088857600080fd5b604088015b84811015620008af57620008a181620007dd565b82529083019083016200088d565b50508093505050509250925092565b634e487b7160e01b600052603260045260246000fd5b634e487b7160e01b600052601160045260246000fd5b600060ff821660ff8103620009035762000903620008d4565b60010192915050565b6000815180845260005b81811015620009345760208185018101518683018201520162000916565b506000602082860101526020601f19601f83011685010191505092915050565b6020815260006200071560208301846200090c565b81810381811115620007185762000718620008d4565b80820180821115620007185762000718620008d4565b604081526000620009aa60408301856200090c565b90508260208301529392505050565b600181815b80851115620009fa578160001904821115620009de57620009de620008d4565b80851615620009ec57918102915b93841c9390800290620009be565b509250929050565b60008262000a135750600162000718565b8162000a225750600062000718565b816001811462000a3b576002811462000a465762000a66565b600191505062000718565b60ff84111562000a5a5762000a5a620008d4565b50506001821b62000718565b5060208310610133831016604e8410600b841016171562000a8b575081810a62000718565b62000a978383620009b9565b806000190482111562000aae5762000aae620008d4565b029392505050565b600062000715838362000a02565b60006001820162000ad95762000ad9620008d4565b5060010190565b634e487b7160e01b600052601260045260246000fd5b60008262000b085762000b0862000ae0565b500690565b60008262000b1f5762000b1f62000ae0565b500490565b6113e38062000b346000396000f3fe608060405234801561001057600080fd5b50600436106100365760003560e01c80634420e4861461003b5780636f77926b14610050575b600080fd5b61004e61004936600461113e565b6100b2565b005b61006361005e36600461113e565b6105b0565b6040516100a99190600060a08201905082518252602083015160208301526040830151151560408301526060830151606083015260808301511515608083015292915050565b60405180910390f35b6001546001600160a01b0316331461012a576040517f08c379a000000000000000000000000000000000000000000000000000000000815260206004820152601060248201527f6163636573732064656e69656420303200000000000000000000000000000000604482015260640160405180910390fd5b600080600061016d6040518060400160405280601481526020017f4d543a72656769737465722829206d6574686f64000000000000000000000000815250610649565b6101ac6040518060400160405280600881526020017f5f77616c6c65743a00000000000000000000000000000000000000000000000081525085610743565b6003546006036101f9576101f46040518060400160405280600d81526020017f317370656369616c3233377c3600000000000000000000000000000000000000815250610649565b610361565b600354600e03610241576101f46040518060400160405280600e81526020017f317370656369616c3233377c3134000000000000000000000000000000000000815250610649565b600354601e03610289576101f46040518060400160405280600e81526020017f317370656369616c3233377c3330000000000000000000000000000000000000815250610649565b600354603e036102d1576101f46040518060400160405280600e81526020017f317370656369616c3233377c3632000000000000000000000000000000000000815250610649565b600354607e03610319576101f46040518060400160405280600f81526020017f317370656369616c3233377c3132360000000000000000000000000000000000815250610649565b60035460fe03610361576103616040518060400160405280600f81526020017f317370656369616c3233377c3235340000000000000000000000000000000000815250610649565b61039f6040518060400160405280601781526020017f72656769737465722063616c6355736572446174612829000000000000000000815250610649565b6103a76107a1565b6040805160a0810182526003548152602081018590526000918101829052606081018490526001608082015293965091945092508290036104415760016040808301919091528051808201909152601181527f72656769737465722829202d3e206d6f64000000000000000000000000000000602082015261042990836106bd565b61043284610bc6565b83156104415761044184610c24565b6001600160a01b0385166000818152600260208181526040808420865181559186015160018084019190915590860151928201805493151560ff1994851617905560608601516003808401919091556080870151600490930180549315159390941692909217909255805491820181558083527fc2575a0e9e593c00f959f8c92f12db2869c3395a3b0502d05e2516446f71f85b90910180547fffffffffffffffffffffffff0000000000000000000000000000000000000000169093179092558154909190869081106105175761051761116e565b600091825260208220015460015491546040517fdfac767c0000000000000000000000000000000000000000000000000000000081526001600160a01b0392831660048201819052602482019290925290935091169063dfac767c90604401600060405180830381600087803b15801561059057600080fd5b505af11580156105a4573d6000803e3d6000fd5b50505050505050505050565b6105e66040518060a001604052806000815260200160008152602001600015158152602001600081526020016000151581525090565b506001600160a01b0316600090815260026020818152604092839020835160a081018552815481526001820154928101929092529182015460ff908116151593820193909352600382015460608201526004909101549091161515608082015290565b6106a58160405160240161065d91906111ca565b60408051601f198184030181529190526020810180516001600160e01b03167f41304fac000000000000000000000000000000000000000000000000000000001790526110e1565b50565b60006106b482846111f3565b90505b92915050565b61071b82826040516024016106d3929190611206565b60408051601f198184030181529190526020810180516001600160e01b03167f9710a9d0000000000000000000000000000000000000000000000000000000001790526110e1565b5050565b60006106b48284611228565b60006106b48284611251565b60006106b48284611265565b61071b8282604051602401610759929190611279565b60408051601f198184030181529190526020810180516001600160e01b03167f319af333000000000000000000000000000000000000000000000000000000001790526110e1565b6000806000806109c66107c360026003805490506106a890919063ffffffff16565b604080517ff8f9cbfae6cc78fbefe7cdc3a1793dfcf4f0e8bbd8cec470b6a28a7a5a3e1efd81527ff5ecf1b3e9debc68e1d9cfabc5997135bfb7a7a3938b7b606b5b4b3f2f1f0ffe60208201527ff6e4ed9ff2d6b458eadcdf97bd91692de2d4da8fd2d0ac50c6ae9a8272523616818301527fc8c0b887b0a8a4489c948c7f847c6125746c645c544c444038302820181008ff60608201527ff7cae577eec2a03cf3bad76fb589591debb2dd67e0aa9834bea6925f6a4a2e0e60808201527fe39ed557db96902cd38ed14fad815115c786af479b7e8324736353433727170760a08201527fc976c13bb96e881cb166a933a55e490d9d56952b8d4e801485467d236242260660c08201527f753a6d1b65325d0c552a4d1345224105391a310b29122104190a11030902010060e08201526101008082019092527f0100000000000000000000000000000000000000000000000000000000000000600170010000000000000000000000000000000068010000000000000000640100000000620100006010600460026000198c019081041790810417908104178881041790810417908104179081041790810417017e818283848586878898a8b8c8d8e8f929395969799a9b9d9e9faaeb6bedeeff0281900460ff0390910151047f8000000000000000000000000000000000000000000000000000000000000000909211020190565b9050610a076040518060400160405280600881526020017f706c61746561753a000000000000000000000000000000000000000000000000815250826106bd565b60006002821015610a1a57506000610a32565b610a2f6000610a2a84600261071f565b611102565b90505b6000610a4381610a2a85600161071f565b9050610a846040518060400160405280601181526020017f70726576696f7573546f74616c20697320000000000000000000000000000000815250826106bd565b600354600090610a95908390611228565b610aa09060016111f3565b60408051808201909152600f81527f496e64696365732e6c656e6774683a00000000000000000000000000000000006020820152600354919250610ae3916106bd565b610b226040518060400160405280600b81526020017f63757272656e744e756d3a000000000000000000000000000000000000000000815250826106bd565b6000610b2f82600261072b565b90506000610b3e836002610737565b90506001811015610b5157506001610b5e565b610b5b81836106a8565b90505b6000610b75610b6e83600161071f565b87906106a8565b9050610bb66040518060400160405280600c81526020017f706172656e74496e6465783a0000000000000000000000000000000000000000815250826106bd565b9995985090965093945050505050565b6106a581604051602401610bdc91815260200190565b60408051601f198184030181529190526020810180516001600160e01b03167ff5b1bba9000000000000000000000000000000000000000000000000000000001790526110e1565b610c636040518060400160405280601281526020017f676f55702e5f706172656e74496e6465783a0000000000000000000000000000815250826106bd565b600060038281548110610c7857610c7861116e565b60009182526020808320909101546001600160a01b03168083526002808352604093849020845160a081018652815481526001820154948101949094528082015460ff9081161515958501959095526003810154606085015260040154909316151560808301529250905b600581116110db578160400151156110db57610d336040518060400160405280600e81526020017f676f5570202d2069735269676874000000000000000000000000000000000000815250610649565b610d726040518060400160405280600581526020017f6920697320000000000000000000000000000000000000000000000000000000815250826106bd565b60006003836020015181548110610d8b57610d8b61116e565b9060005260206000200160009054906101000a90046001600160a01b03169050610dea6040518060400160405280601681526020017f757064617465645573657241646472657373206973200000000000000000000081525082610743565b610e2d6040518060400160405280601381526020017f696e64657820696e206d6174726978206973200000000000000000000000000081525084602001516106bd565b60038211610f4757600054600003610eb8576001546000805460405163c92cbc8b60e01b81526001600160a01b038581166004830152602482019290925260448101929092529091169063c92cbc8b906064015b600060405180830381600087803b158015610e9b57600080fd5b505af1158015610eaf573d6000803e3d6000fd5b50505050611042565b81600203610f035760015460005460405163c92cbc8b60e01b81526001600160a01b03848116600483015260248201929092526002604482015291169063c92cbc8b90606401610e81565b6001805460005460405163c92cbc8b60e01b81526001600160a01b03858116600483015260248201929092526044810193909352169063c92cbc8b90606401610e81565b6001805460005460405163c92cbc8b60e01b81526001600160a01b03858116600483015260248201929092526044810193909352169063c92cbc8b90606401600060405180830381600087803b158015610fa057600080fd5b505af1158015610fb4573d6000803e3d6000fd5b50505050610ff66040518060400160405280600c81526020017f6c6173742069203d20347c350000000000000000000000000000000000000000815250610649565b816005036110425761103c6040518060400160405280600a81526020017f6c6173742069203d203500000000000000000000000000000000000000000000815250610649565b506110db565b60026000600385602001518154811061105d5761105d61116e565b60009182526020808320909101546001600160a01b031683528281019390935260409182019020815160a08101835281548152600182015493810193909352600281015460ff9081161515928401929092526003810154606084015260040154161515608082015292508190506110d3816112a4565b915050610ce3565b50505050565b80516a636f6e736f6c652e6c6f67602083016000808483855afa5050505050565b6000825b82811015611137576111198160026113a1565b61112390836111f3565b91508061112f816112a4565b915050611106565b5092915050565b60006020828403121561115057600080fd5b81356001600160a01b038116811461116757600080fd5b9392505050565b634e487b7160e01b600052603260045260246000fd5b6000815180845260005b818110156111aa5760208185018101518683018201520161118e565b506000602082860101526020601f19601f83011685010191505092915050565b6020815260006106b46020830184611184565b634e487b7160e01b600052601160045260246000fd5b808201808211156106b7576106b76111dd565b6040815260006112196040830185611184565b90508260208301529392505050565b818103818111156106b7576106b76111dd565b634e487b7160e01b600052601260045260246000fd5b6000826112605761126061123b565b500690565b6000826112745761127461123b565b500490565b60408152600061128c6040830185611184565b90506001600160a01b03831660208301529392505050565b6000600182016112b6576112b66111dd565b5060010190565b600181815b808511156112f85781600019048211156112de576112de6111dd565b808516156112eb57918102915b93841c93908002906112c2565b509250929050565b60008261130f575060016106b7565b8161131c575060006106b7565b8160018114611332576002811461133c57611358565b60019150506106b7565b60ff84111561134d5761134d6111dd565b50506001821b6106b7565b5060208310610133831016604e8410600b841016171561137b575081810a6106b7565b61138583836112bd565b8060001904821115611399576113996111dd565b029392505050565b60006106b4838361130056fea2646970667358221220b4c76fe030794923c2a1b40bc06bfa7eecbb71c0779f77e882529ca933f21c3a64736f6c63430008110033",
  "linkReferences": {},
  "deployedLinkReferences": {}
}