{
  "_format": "hh-sol-artifact-1",
  "contractName": "Core",
  "sourceName": "contracts/Core.sol",
  "abi": [
    {
      "inputs": [],
      "stateMutability": "payable",
      "type": "constructor"
    },
    {
      "anonymous": false,
      "inputs": [
        {
          "indexed": false,
          "internalType": "address",
          "name": "",
          "type": "address"
        },
        {
          "indexed": false,
          "internalType": "uint256",
          "name": "",
          "type": "uint256"
        }
      ],
      "name": "UserRegistered",
      "type": "event"
    },
    {
      "anonymous": false,
      "inputs": [
        {
          "indexed": false,
          "internalType": "address",
          "name": "",
          "type": "address"
        },
        {
          "indexed": false,
          "internalType": "uint8",
          "name": "",
          "type": "uint8"
        },
        {
          "indexed": false,
          "internalType": "uint256",
          "name": "",
          "type": "uint256"
        }
      ],
      "name": "UserUpdated",
      "type": "event"
    },
    {
      "inputs": [
        {
          "internalType": "uint256",
          "name": "level",
          "type": "uint256"
        }
      ],
      "name": "getLevelContract",
      "outputs": [
        {
          "internalType": "address",
          "name": "",
          "type": "address"
        }
      ],
      "stateMutability": "view",
      "type": "function"
    },
    {
      "inputs": [
        {
          "internalType": "address",
          "name": "userAddress",
          "type": "address"
        }
      ],
      "name": "getUserFromCore",
      "outputs": [
        {
          "components": [
            {
              "internalType": "uint256",
              "name": "claims",
              "type": "uint256"
            },
            {
              "internalType": "uint256",
              "name": "gifts",
              "type": "uint256"
            },
            {
              "internalType": "uint256",
              "name": "level",
              "type": "uint256"
            },
            {
              "internalType": "address",
              "name": "whose",
              "type": "address"
            },
            {
              "internalType": "bool",
              "name": "isValue",
              "type": "bool"
            }
          ],
          "internalType": "struct Core.UserGlobal",
          "name": "user",
          "type": "tuple"
        }
      ],
      "stateMutability": "view",
      "type": "function"
    },
    {
      "inputs": [
        {
          "internalType": "uint256",
          "name": "matrixIdx",
          "type": "uint256"
        },
        {
          "internalType": "address",
          "name": "userWallet",
          "type": "address"
        }
      ],
      "name": "getUserFromMatrix",
      "outputs": [
        {
          "components": [
            {
              "internalType": "uint256",
              "name": "index",
              "type": "uint256"
            },
            {
              "internalType": "uint256",
              "name": "parent",
              "type": "uint256"
            },
            {
              "internalType": "bool",
              "name": "isRight",
              "type": "bool"
            },
            {
              "internalType": "uint256",
              "name": "plateau",
              "type": "uint256"
            },
            {
              "internalType": "bool",
              "name": "isValue",
              "type": "bool"
            }
          ],
          "internalType": "struct MatrixTemplate.User",
          "name": "user",
          "type": "tuple"
        }
      ],
      "stateMutability": "view",
      "type": "function"
    },
    {
      "inputs": [],
      "name": "payUnit",
      "outputs": [
        {
          "internalType": "uint256",
          "name": "",
          "type": "uint256"
        }
      ],
      "stateMutability": "view",
      "type": "function"
    },
    {
      "inputs": [
        {
          "internalType": "address",
          "name": "whose",
          "type": "address"
        }
      ],
      "name": "register",
      "outputs": [],
      "stateMutability": "payable",
      "type": "function"
    },
    {
      "inputs": [
        {
          "internalType": "address",
          "name": "wallet",
          "type": "address"
        },
        {
          "internalType": "uint256",
          "name": "matrixIndex",
          "type": "uint256"
        }
      ],
      "name": "sendHalf",
      "outputs": [],
      "stateMutability": "nonpayable",
      "type": "function"
    },
    {
      "inputs": [
        {
          "internalType": "address",
          "name": "userAddress",
          "type": "address"
        },
        {
          "internalType": "uint256",
          "name": "matrixIndex",
          "type": "uint256"
        },
        {
          "internalType": "uint8",
          "name": "field",
          "type": "uint8"
        }
      ],
      "name": "updateUser",
      "outputs": [],
      "stateMutability": "nonpayable",
      "type": "function"
    },
    {
      "stateMutability": "payable",
      "type": "receive"
    }
  ],
  "bytecode": "0x6080604052662386f26fc1000060009081556013600155601680546001600160a01b031916331790555b60015481116100c857600033823060405161004390610154565b6001600160a01b03938416815260208101929092529091166040820152606001604051809103906000f08015801561007f573d6000803e3d6000fd5b509050806002836014811061009657610096610161565b0180546001600160a01b0319166001600160a01b039290921691909117905550806100c081610177565b915050610029565b506040805160a08101825260008082526020808301828152600180548587019081526016546001600160a01b0390811660608801908152608088018481523388526017909652979095209551865591519085015551600284015592516003909201805493511515600160a01b026001600160a81b0319909416929091169190911791909117905561019e565b610d438061107483390190565b634e487b7160e01b600052603260045260246000fd5b60006001820161019757634e487b7160e01b600052601160045260246000fd5b5060010190565b610ec7806101ad6000396000f3fe6080604052600436106100745760003560e01c806390e7af8f1161004e57806390e7af8f1461017457806394328eab146101ac578063c92cbc8b146101d0578063dfac767c146101f057600080fd5b80634420e4861461008a5780635f8e7d031461009d5780638212e2bb1461010e57600080fd5b36610085576100833334610210565b005b600080fd5b610083610098366004610c84565b610488565b3480156100a957600080fd5b506100bd6100b8366004610c84565b61072b565b60405161010591908151815260208083015190820152604080830151908201526060808301516001600160a01b03169082015260809182015115159181019190915260a00190565b60405180910390f35b34801561011a57600080fd5b5061012e610129366004610c9f565b6107cd565b6040516101059190600060a08201905082518252602083015160208301526040830151151560408301526060830151606083015260808301511515608083015292915050565b34801561018057600080fd5b5061019461018f366004610ccb565b61088a565b6040516001600160a01b039091168152602001610105565b3480156101b857600080fd5b506101c260005481565b604051908152602001610105565b3480156101dc57600080fd5b506100836101eb366004610ce4565b6108b0565b3480156101fc57600080fd5b5061008361020b366004610d2a565b610a80565b6001600160a01b03821660009081526017602052604081206003015481908190600160a01b900460ff161561029f576001600160a01b038516600090815260176020526040902054610263908590610b99565b6001600160a01b03861660009081526017602052604090206002015490935061028d906001610b99565b915061029882610bab565b90506102a9565b5050600080548392505b60138211610481575b8083106104815760138211610481576001600160a01b038516600090815260176020526040902060030154600160a01b900460ff1615610313576001600160a01b03851660009081526017602052604090206002810183905583905561039b565b6040805160a081018252848152600060208083018281528385018381526016546001600160a01b03908116606087019081526001608088018181528e84168852601790965297909520955186559151958501959095559351600284015590516003909201805491511515600160a01b026001600160a81b031990921692909316919091171790555b600282601481106103ae576103ae610d54565b0154604051632210724360e11b81526001600160a01b03878116600483015290911690634420e48690602401600060405180830381600087803b1580156103f457600080fd5b505af1158015610408573d6000803e3d6000fd5b5050604080516001600160a01b0389168152602081018690527fe29d35093005f4d575e1003753426b57a7f64378ba73332eef9c6ccc2b8decd6935001905060405180910390a1821561047c5761045f8382610be6565b925061046c816002610bf2565b9050610479826001610b99565b91505b6102b2565b5050505050565b33600090815260176020526040902060030154600160a01b900460ff16156104f75760405162461bcd60e51b815260206004820152601760248201527f7573657220616c7265616479207265676973746572656400000000000000000060448201526064015b60405180910390fd5b600080546001600160a01b0383168252601760205260409091206001015410156105dd576000805461052a906001610b99565b905080341061058f5760405162461bcd60e51b815260206004820152602b60248201527f796f752070616964206c657373207468616e2074686520636f7374206f66207260448201526a32b3b4b9ba3930ba34b7b760a91b60648201526084016104ee565b6000543411156105d75760005433906108fc906105ad903490610be6565b6040518115909202916000818181858888f193505050501580156105d5573d6000803e3d6000fd5b505b5061064e565b60405133903480156108fc02916000818181858888f19350505050158015610609573d6000803e3d6000fd5b50600080546001600160a01b0383168252601760205260409091206001015461063191610be6565b6001600160a01b0382166000908152601760205260409020600101555b6040805160a081018252600080825260208083018281528385018381526001600160a01b03808816606087019081526001608088018181523388526017909652978620965187559251968601969096555160028086019190915590516003909401805492511515600160a01b026001600160a81b03199093169490951693909317179092550154604051632210724360e11b81523360048201526001600160a01b0390911690634420e48690602401600060405180830381600087803b15801561071757600080fd5b505af1158015610481573d6000803e3d6000fd5b6107686040518060a0016040528060008152602001600081526020016000815260200160006001600160a01b031681526020016000151581525090565b506001600160a01b03908116600090815260176020908152604091829020825160a081018452815481526001820154928101929092526002810154928201929092526003909101549182166060820152600160a01b90910460ff161515608082015290565b6108036040518060a001604052806000815260200160008152602001600015158152602001600081526020016000151581525090565b6002836014811061081657610816610d54565b0154604051636f77926b60e01b81526001600160a01b03848116600483015290911690636f77926b9060240160a060405180830381865afa15801561085f573d6000803e3d6000fd5b505050506040513d601f19601f820116820180604052508101906108839190610d7a565b9392505050565b60006002826014811061089f5761089f610d54565b01546001600160a01b031692915050565b6108b933610bfe565b6108f55760405162461bcd60e51b815260206004820152600d60248201526c1858d8d95cdcc819195b9a5959609a1b60448201526064016104ee565b600061090083610bab565b90508160ff16600003610954576001600160a01b0384166000908152601760205260409020600101546109339082610b99565b6001600160a01b0385166000908152601760205260409020600101556109e4565b8160ff166001036109a0576001600160a01b0384166000908152601760205260409020546109829082610b99565b6001600160a01b0385166000908152601760205260409020556109e4565b8160ff166002036109e4576109e26109b784610bab565b6001600160a01b03808716600090815260176020526040808220600301549092168152205490610b99565b505b60006109f1826002610bf2565b9050808210158015610a1157506016546001600160a01b03868116911614155b8015610a1d5750601384105b15610a2d57610a2d856000610210565b604080516001600160a01b038716815260ff851660208201529081018290527f5bb010dc69d7527dd8427d347a09974d8085a9e2874e9eb9bd28fb234145c3e89060600160405180910390a15050505050565b610a8933610bfe565b610ad55760405162461bcd60e51b815260206004820181905260248201527f6163636573732064656e69656420666f7220433a3a5f73656e6448616c66282960448201526064016104ee565b60138110610ae1575050565b6000610af76002610af184610bab565b90610c5c565b90506000836001600160a01b03168260405160006040518083038185875af1925050503d8060008114610b46576040519150601f19603f3d011682016040523d82523d6000602084013e610b4b565b606091505b5050905080610b935760405162461bcd60e51b81526020600482015260146024820152732330b4b632b2103a379039b2b7321022ba3432b960611b60448201526064016104ee565b50505050565b60006108838284610e19565b92915050565b600080548215610ba55760005b83811015610bdf57610bcb826002610e2c565b915080610bd781610e43565b915050610bb8565b5092915050565b60006108838284610e5c565b60006108838284610e2c565b6000805b6014811015610c5357826001600160a01b031660028260148110610c2857610c28610d54565b01546001600160a01b031603610c415750600192915050565b80610c4b81610e43565b915050610c02565b50600092915050565b60006108838284610e6f565b80356001600160a01b0381168114610c7f57600080fd5b919050565b600060208284031215610c9657600080fd5b61088382610c68565b60008060408385031215610cb257600080fd5b82359150610cc260208401610c68565b90509250929050565b600060208284031215610cdd57600080fd5b5035919050565b600080600060608486031215610cf957600080fd5b610d0284610c68565b925060208401359150604084013560ff81168114610d1f57600080fd5b809150509250925092565b60008060408385031215610d3d57600080fd5b610d4683610c68565b946020939093013593505050565b634e487b7160e01b600052603260045260246000fd5b80518015158114610c7f57600080fd5b600060a08284031215610d8c57600080fd5b60405160a0810181811067ffffffffffffffff82111715610dbd57634e487b7160e01b600052604160045260246000fd5b80604052508251815260208301516020820152610ddc60408401610d6a565b604082015260608301516060820152610df760808401610d6a565b60808201529392505050565b634e487b7160e01b600052601160045260246000fd5b80820180821115610ba557610ba5610e03565b8082028115828204841417610ba557610ba5610e03565b600060018201610e5557610e55610e03565b5060010190565b81810381811115610ba557610ba5610e03565b600082610e8c57634e487b7160e01b600052601260045260246000fd5b50049056fea2646970667358221220b1c52b8ae31c2ba7c763c0b1a99d31b6961bbc4146e3ffd37f02fae435fdd40364736f6c63430008110033608060405234801561001057600080fd5b50604051610d43380380610d4383398101604081905261002f9161012c565b6040805160a08101825260008082526020808301828152838501838152606085018481526001608087018181526001600160a01b039b8c168088526003968790529887209751885593518782015591516002808801805460ff1990811693151593909317905591519487019490945591516004958601805490941690151517909255835480830185559383527f8a35acfbc15ff81a39ae7d344fd709f28e8600b4aa8c65c6b64bfe7fe36bd19b90930180546001600160a01b0319908116861790915582548116909417909155939093558254169216919091179055610168565b80516001600160a01b038116811461012757600080fd5b919050565b60008060006060848603121561014157600080fd5b61014a84610110565b92506020840151915061015f60408501610110565b90509250925092565b610bcc806101776000396000f3fe608060405234801561001057600080fd5b506004361061004c5760003560e01c80634420e486146100515780636f77926b14610066578063a0d03526146100c8578063be1c766b14610107575b600080fd5b61006461005f3660046109a9565b610118565b005b6100796100743660046109a9565b610562565b6040516100bf9190600060a08201905082518252602083015160208301526040830151151560408301526060830151606083015260808301511515608083015292915050565b60405180910390f35b6100f76100d63660046109a9565b6001600160a01b031660009081526003602052604090206004015460ff1690565b60405190151581526020016100bf565b6004546040519081526020016100bf565b61014e6040518060a001604052806000815260200160008152602001600015158152602001600081526020016000151581525090565b600454600090610321906101639060026109ef565b604080517ff8f9cbfae6cc78fbefe7cdc3a1793dfcf4f0e8bbd8cec470b6a28a7a5a3e1efd81527ff5ecf1b3e9debc68e1d9cfabc5997135bfb7a7a3938b7b606b5b4b3f2f1f0ffe60208201527ff6e4ed9ff2d6b458eadcdf97bd91692de2d4da8fd2d0ac50c6ae9a8272523616818301527fc8c0b887b0a8a4489c948c7f847c6125746c645c544c444038302820181008ff60608201527ff7cae577eec2a03cf3bad76fb589591debb2dd67e0aa9834bea6925f6a4a2e0e60808201527fe39ed557db96902cd38ed14fad815115c786af479b7e8324736353433727170760a08201527fc976c13bb96e881cb166a933a55e490d9d56952b8d4e801485467d236242260660c08201527f753a6d1b65325d0c552a4d1345224105391a310b29122104190a11030902010060e0820152610100808201909252600160f81b6001600160801b68010000000000000000640100000000620100006010600460026000198c019081041790810417908104178881041790810417908104179081041790810417017e818283848586878898a8b8c8d8e8f929395969799a9b9d9e9faaeb6bedeeff0281900460ff039091015104600160ff1b909211020190565b9050600060028210156103365750600061034e565b61034b6000610346600285610a02565b6105fb565b90505b600061035f81610346600186610a02565b600454909150600090610373908390610a02565b61037e9060016109ef565b9050600061038d826002610637565b9050600061039c83600261064c565b905060018110156103af575060016103bc565b6103b982826109ef565b90505b600060016103ca83886109ef565b6103d49190610a02565b6040805160a0810182526004548152602081018390526000918101829052606081018a905260016080820152995090915083900361042357801561041b5761041b81610658565b600160408901525b60006004828154811061043857610438610a15565b6000918252602090912001546002546001546040516337eb1d9f60e21b81526001600160a01b0393841660048201819052602482019290925290935091169063dfac767c90604401600060405180830381600087803b15801561049a57600080fd5b505af11580156104ae573d6000803e3d6000fd5b5050506001600160a01b03909a1660008181526003602081815260408084208e518155918e0151600180840191909155908e015160028301805491151560ff1992831617905560608f0151938301939093556080909d015160049182018054911515919093161790915580549b8c01815590527f8a35acfbc15ff81a39ae7d344fd709f28e8600b4aa8c65c6b64bfe7fe36bd19b90990180546001600160a01b031916909917909855505050505050505050565b6105986040518060a001604052806000815260200160008152602001600015158152602001600081526020016000151581525090565b506001600160a01b0316600090815260036020818152604092839020835160a08101855281548152600182015492810192909252600281015460ff9081161515948301949094529182015460608201526004909101549091161515608082015290565b6000825b8281101561063057610612816002610b0f565b61061c90836109ef565b91508061062881610b1b565b9150506105ff565b5092915050565b60006106438284610b4a565b90505b92915050565b60006106438284610b5e565b60006004828154811061066d5761066d610a15565b60009182526020808320909101546001600160a01b03168083526003808352604093849020845160a0810186528154815260018201549481019490945260028082015460ff90811615159686019690965291810154606085015260040154909316151560808301529250905b600581116109a3578160400151156109a3576000600483602001518154811061070457610704610a15565b6000918252602090912001546001600160a01b031690506003821161081a5760015460000361079b5760025460015460405163c92cbc8b60e01b81526001600160a01b039092169163c92cbc8b9161076491859190600090600401610b72565b600060405180830381600087803b15801561077e57600080fd5b505af1158015610792573d6000803e3d6000fd5b5050505061090a565b6001546013036107e357816003036107e3576002805460015460405163c92cbc8b60e01b81526001600160a01b039092169263c92cbc8b926107649286929091600401610b72565b6002546001805460405163c92cbc8b60e01b81526001600160a01b039093169263c92cbc8b92610764928692909190600401610b72565b600154601303610892576002546001805460405163c92cbc8b60e01b81526001600160a01b039093169263c92cbc8b9261085b928692909190600401610b72565b600060405180830381600087803b15801561087557600080fd5b505af1158015610889573d6000803e3d6000fd5b505050506108fc565b6002546001805460405163c92cbc8b60e01b81526001600160a01b039093169263c92cbc8b926108c9928692909190600401610b72565b600060405180830381600087803b1580156108e357600080fd5b505af11580156108f7573d6000803e3d6000fd5b505050505b8160050361090a57506109a3565b60036000600485602001518154811061092557610925610a15565b60009182526020808320909101546001600160a01b031683528281019390935260409182019020815160a08101835281548152600182015493810193909352600281015460ff90811615159284019290925260038101546060840152600401541615156080820152925081905061099b81610b1b565b9150506106d9565b50505050565b6000602082840312156109bb57600080fd5b81356001600160a01b03811681146109d257600080fd5b9392505050565b634e487b7160e01b600052601160045260246000fd5b80820180821115610646576106466109d9565b81810381811115610646576106466109d9565b634e487b7160e01b600052603260045260246000fd5b600181815b80851115610a66578160001904821115610a4c57610a4c6109d9565b80851615610a5957918102915b93841c9390800290610a30565b509250929050565b600082610a7d57506001610646565b81610a8a57506000610646565b8160018114610aa05760028114610aaa57610ac6565b6001915050610646565b60ff841115610abb57610abb6109d9565b50506001821b610646565b5060208310610133831016604e8410600b8410161715610ae9575081810a610646565b610af38383610a2b565b8060001904821115610b0757610b076109d9565b029392505050565b60006106438383610a6e565b600060018201610b2d57610b2d6109d9565b5060010190565b634e487b7160e01b600052601260045260246000fd5b600082610b5957610b59610b34565b500690565b600082610b6d57610b6d610b34565b500490565b6001600160a01b03939093168352602083019190915260ff1660408201526060019056fea26469706673582212202794d70e029c8a475be0e9caa59312b3e3299693f67b1c7d390d3dd0a5ba8dc864736f6c63430008110033",
  "linkReferences": {},
  "deployedLinkReferences": {}
}