{
  "_format": "hh-sol-artifact-1",
  "contractName": "Core",
  "sourceName": "contracts/Core.sol",
  "abi": [
    {
      "inputs": [
        {
          "internalType": "address[6]",
          "name": "sixFounders",
          "type": "address[6]"
        }
      ],
      "stateMutability": "payable",
      "type": "constructor"
    },
    {
      "anonymous": false,
      "inputs": [
        {
          "indexed": false,
          "internalType": "address",
          "name": "",
          "type": "address"
        },
        {
          "indexed": false,
          "internalType": "uint256",
          "name": "",
          "type": "uint256"
        }
      ],
      "name": "UserRegistered",
      "type": "event"
    },
    {
      "anonymous": false,
      "inputs": [
        {
          "indexed": false,
          "internalType": "address",
          "name": "",
          "type": "address"
        },
        {
          "indexed": false,
          "internalType": "uint8",
          "name": "",
          "type": "uint8"
        },
        {
          "indexed": false,
          "internalType": "uint256",
          "name": "",
          "type": "uint256"
        }
      ],
      "name": "UserUpdated",
      "type": "event"
    },
    {
      "stateMutability": "payable",
      "type": "fallback"
    },
    {
      "inputs": [
        {
          "internalType": "uint256",
          "name": "level",
          "type": "uint256"
        }
      ],
      "name": "getLevelContract",
      "outputs": [
        {
          "internalType": "address",
          "name": "",
          "type": "address"
        }
      ],
      "stateMutability": "view",
      "type": "function"
    },
    {
      "inputs": [
        {
          "internalType": "address",
          "name": "userAddress",
          "type": "address"
        }
      ],
      "name": "getUserFromCore",
      "outputs": [
        {
          "components": [
            {
              "internalType": "uint256",
              "name": "claims",
              "type": "uint256"
            },
            {
              "internalType": "uint256",
              "name": "gifts",
              "type": "uint256"
            },
            {
              "internalType": "uint256",
              "name": "level",
              "type": "uint256"
            },
            {
              "internalType": "address",
              "name": "whose",
              "type": "address"
            },
            {
              "internalType": "bool",
              "name": "isValue",
              "type": "bool"
            }
          ],
          "internalType": "struct Core.UserGlobal",
          "name": "user",
          "type": "tuple"
        }
      ],
      "stateMutability": "view",
      "type": "function"
    },
    {
      "inputs": [
        {
          "internalType": "uint256",
          "name": "matrixIdx",
          "type": "uint256"
        },
        {
          "internalType": "address",
          "name": "userWallet",
          "type": "address"
        }
      ],
      "name": "getUserFromMatrix",
      "outputs": [
        {
          "components": [
            {
              "internalType": "uint256",
              "name": "index",
              "type": "uint256"
            },
            {
              "internalType": "uint256",
              "name": "parent",
              "type": "uint256"
            },
            {
              "internalType": "bool",
              "name": "isRight",
              "type": "bool"
            },
            {
              "internalType": "uint256",
              "name": "plateau",
              "type": "uint256"
            },
            {
              "internalType": "bool",
              "name": "isValue",
              "type": "bool"
            }
          ],
          "internalType": "struct MatrixTemplate.User",
          "name": "user",
          "type": "tuple"
        }
      ],
      "stateMutability": "view",
      "type": "function"
    },
    {
      "inputs": [],
      "name": "payUnit",
      "outputs": [
        {
          "internalType": "uint256",
          "name": "",
          "type": "uint256"
        }
      ],
      "stateMutability": "view",
      "type": "function"
    },
    {
      "inputs": [
        {
          "internalType": "address",
          "name": "whose",
          "type": "address"
        }
      ],
      "name": "register",
      "outputs": [],
      "stateMutability": "payable",
      "type": "function"
    },
    {
      "inputs": [
        {
          "internalType": "address",
          "name": "wallet",
          "type": "address"
        },
        {
          "internalType": "uint256",
          "name": "matrixIndex",
          "type": "uint256"
        }
      ],
      "name": "sendHalf",
      "outputs": [],
      "stateMutability": "nonpayable",
      "type": "function"
    },
    {
      "inputs": [
        {
          "internalType": "address",
          "name": "userAddress",
          "type": "address"
        },
        {
          "internalType": "uint256",
          "name": "matrixIndex",
          "type": "uint256"
        },
        {
          "internalType": "uint8",
          "name": "field",
          "type": "uint8"
        }
      ],
      "name": "updateUser",
      "outputs": [],
      "stateMutability": "nonpayable",
      "type": "function"
    },
    {
      "inputs": [
        {
          "internalType": "uint256",
          "name": "amount",
          "type": "uint256"
        }
      ],
      "name": "withdrawClaim",
      "outputs": [],
      "stateMutability": "nonpayable",
      "type": "function"
    },
    {
      "stateMutability": "payable",
      "type": "receive"
    }
  ],
  "bytecode": "0x6080604052662386f26fc1000060005560136001556040516200274c3803806200274c833981016040819052620000369162000241565b8051601680546001600160a01b0319166001600160a01b0390921691909117905560005b6006811015620001735760008082116200007757508151620000a0565b826200008560018462000307565b60068110620000985762000098620002db565b602002015190505b6040518060a0016040528060008152602001600081526020016001548152602001826001600160a01b031681526020016001151581525060176000858560068110620000f057620000f0620002db565b602090810291909101516001600160a01b039081168352828201939093526040918201600020845181559084015160018201559083015160028201556060830151600390910180546080909401511515600160a01b026001600160a81b0319909416919092161791909117905550806200016a8162000323565b9150506200005a565b5060005b60015481116200020e576000813084604051620001949062000216565b620001a2939291906200033f565b604051809103906000f080158015620001bf573d6000803e3d6000fd5b5090508060028360148110620001d957620001d9620002db565b0180546001600160a01b0319166001600160a01b03929092169190911790555080620002058162000323565b91505062000177565b505062000392565b6112f0806200145c83390190565b80516001600160a01b03811681146200023c57600080fd5b919050565b600060c082840312156200025457600080fd5b82601f8301126200026457600080fd5b60405160c081016001600160401b03811182821017156200029557634e487b7160e01b600052604160045260246000fd5b6040528060c0840185811115620002ab57600080fd5b845b81811015620002d057620002c18162000224565b835260209283019201620002ad565b509195945050505050565b634e487b7160e01b600052603260045260246000fd5b634e487b7160e01b600052601160045260246000fd5b818103818111156200031d576200031d620002f1565b92915050565b600060018201620003385762000338620002f1565b5060010190565b8381526001600160a01b03838116602080840191909152610100830191604084018560005b60068110156200038557815184168352918401919084019060010162000364565b5050505050949350505050565b6110ba80620003a26000396000f3fe6080604052600436106100795760003560e01c806394328eab1161004b57806394328eab146101ac578063a224dcb7146101d0578063c92cbc8b146101f0578063dfac767c1461021057005b80634420e4861461008a5780635f8e7d031461009d5780638212e2bb1461010e57806390e7af8f1461017457005b36610088576100883334610230565b005b610088610098366004610e77565b6104c4565b3480156100a957600080fd5b506100bd6100b8366004610e77565b6107ab565b60405161010591908151815260208083015190820152604080830151908201526060808301516001600160a01b03169082015260809182015115159181019190915260a00190565b60405180910390f35b34801561011a57600080fd5b5061012e610129366004610e92565b61084d565b6040516101059190600060a08201905082518252602083015160208301526040830151151560408301526060830151606083015260808301511515608083015292915050565b34801561018057600080fd5b5061019461018f366004610ebe565b61090a565b6040516001600160a01b039091168152602001610105565b3480156101b857600080fd5b506101c260005481565b604051908152602001610105565b3480156101dc57600080fd5b506100886101eb366004610ebe565b610930565b3480156101fc57600080fd5b5061008861020b366004610ed7565b610aa0565b34801561021c57600080fd5b5061008861022b366004610f1d565b610c73565b6001600160a01b03821660009081526017602052604081206003015481908190600160a01b900460ff16156102bf576001600160a01b038516600090815260176020526040902054610283908590610d8c565b6001600160a01b0386166000908152601760205260409020600201549093506102ad906001610d8c565b91506102b882610d9e565b90506102c9565b5050600080548392505b601382116104bd575b8083106104a157601382116104a1576001600160a01b038516600090815260176020526040902060030154600160a01b900460ff1615610333576001600160a01b0385166000908152601760205260409020600281018390558390556103bb565b6040805160a081018252848152600060208083018281528385018381526016546001600160a01b03908116606087019081526001608088018181528e84168852601790965297909520955186559151958501959095559351600284015590516003909201805491511515600160a01b026001600160a81b031990921692909316919091171790555b600282601481106103ce576103ce610f47565b0154604051632210724360e11b81526001600160a01b03878116600483015290911690634420e48690602401600060405180830381600087803b15801561041457600080fd5b505af1158015610428573d6000803e3d6000fd5b5050604080516001600160a01b0389168152602081018690527fe29d35093005f4d575e1003753426b57a7f64378ba73332eef9c6ccc2b8decd6935001905060405180910390a1821561049c5761047f8382610dd9565b925061048c816002610de5565b9050610499826001610d8c565b91505b6102d2565b6001600160a01b03851660009081526017602052604090208390555b5050505050565b33600090815260176020526040902060030154600160a01b900460ff16156105335760405162461bcd60e51b815260206004820152601760248201527f7573657220616c7265616479207265676973746572656400000000000000000060448201526064015b60405180910390fd5b600080546001600160a01b03831682526017602052604082206001015410156105e657600054610564906001610d8c565b34106105c65760405162461bcd60e51b815260206004820152602b60248201527f796f752070616964206c657373207468616e2074686520636f7374206f66207260448201526a32b3b4b9ba3930ba34b7b760a91b606482015260840161052a565b6000543411156105e1576000546105de903490610dd9565b90505b61062c565b600080546001600160a01b0384168252601760205260409091206001015461060d91610dd9565b6001600160a01b03831660009081526017602052604090206001015550345b6040805160a081018252600080825260208083018281528385018381526001600160a01b03808916606087019081526001608088018181523388526017909652978620965187559251968601969096555160028086019190915590516003909401805492511515600160a01b026001600160a81b03199093169490951693909317179092550154604051632210724360e11b81523360048201526001600160a01b0390911690634420e48690602401600060405180830381600087803b1580156106f557600080fd5b505af1158015610709573d6000803e3d6000fd5b5050505060008111156107a757604051600090339083908381818185875af1925050503d8060008114610758576040519150601f19603f3d011682016040523d82523d6000602084013e61075d565b606091505b50509050806107a55760405162461bcd60e51b81526020600482015260146024820152734661696c656420746f2073656e6420424e42203360601b604482015260640161052a565b505b5050565b6107e86040518060a0016040528060008152602001600081526020016000815260200160006001600160a01b031681526020016000151581525090565b506001600160a01b03908116600090815260176020908152604091829020825160a081018452815481526001820154928101929092526002810154928201929092526003909101549182166060820152600160a01b90910460ff161515608082015290565b6108836040518060a001604052806000815260200160008152602001600015158152602001600081526020016000151581525090565b6002836014811061089657610896610f47565b0154604051636f77926b60e01b81526001600160a01b03848116600483015290911690636f77926b9060240160a060405180830381865afa1580156108df573d6000803e3d6000fd5b505050506040513d601f19601f820116820180604052508101906109039190610f6d565b9392505050565b60006002826014811061091f5761091f610f47565b01546001600160a01b031692915050565b336000908152601760205260409020548110156109fe57336000908152601760205260409020546109619082610dd9565b3360008181526017602052604080822093909355915183908381818185875af1925050503d80600081146109b1576040519150601f19603f3d011682016040523d82523d6000602084013e6109b6565b606091505b50509050806107a75760405162461bcd60e51b81526020600482015260146024820152734661696c656420746f2073656e6420424e42203160601b604482015260640161052a565b33600081815260176020526040808220805490839055905190929083908381818185875af1925050503d8060008114610a53576040519150601f19603f3d011682016040523d82523d6000602084013e610a58565b606091505b50509050806107a55760405162461bcd60e51b81526020600482015260146024820152732330b4b632b2103a379039b2b73210212721101960611b604482015260640161052a565b610aa933610df1565b610ae85760405162461bcd60e51b815260206004820152601060248201526f6163636573732064656e69656420303160801b604482015260640161052a565b6000610af383610d9e565b90508160ff16600003610b47576001600160a01b038416600090815260176020526040902060010154610b269082610d8c565b6001600160a01b038516600090815260176020526040902060010155610bd7565b8160ff16600103610b93576001600160a01b038416600090815260176020526040902054610b759082610d8c565b6001600160a01b038516600090815260176020526040902055610bd7565b8160ff16600203610bd757610bd5610baa84610d9e565b6001600160a01b03808716600090815260176020526040808220600301549092168152205490610d8c565b505b6000610be4826002610de5565b9050808210158015610c0457506016546001600160a01b03868116911614155b8015610c105750601384105b15610c2057610c20856000610230565b604080516001600160a01b038716815260ff851660208201529081018290527f5bb010dc69d7527dd8427d347a09974d8085a9e2874e9eb9bd28fb234145c3e89060600160405180910390a15050505050565b610c7c33610df1565b610cc85760405162461bcd60e51b815260206004820181905260248201527f6163636573732064656e69656420666f7220433a3a5f73656e6448616c662829604482015260640161052a565b60138110610cd4575050565b6000610cea6002610ce484610d9e565b90610e4f565b90506000836001600160a01b03168260405160006040518083038185875af1925050503d8060008114610d39576040519150601f19603f3d011682016040523d82523d6000602084013e610d3e565b606091505b5050905080610d865760405162461bcd60e51b815260206004820152601460248201527311985a5b1959081d1bc81cd95b9908109390880d60621b604482015260640161052a565b50505050565b6000610903828461100c565b92915050565b600080548215610d985760005b83811015610dd257610dbe826002610de5565b915080610dca8161101f565b915050610dab565b5092915050565b60006109038284611038565b6000610903828461104b565b6000805b6014811015610e4657826001600160a01b031660028260148110610e1b57610e1b610f47565b01546001600160a01b031603610e345750600192915050565b80610e3e8161101f565b915050610df5565b50600092915050565b60006109038284611062565b80356001600160a01b0381168114610e7257600080fd5b919050565b600060208284031215610e8957600080fd5b61090382610e5b565b60008060408385031215610ea557600080fd5b82359150610eb560208401610e5b565b90509250929050565b600060208284031215610ed057600080fd5b5035919050565b600080600060608486031215610eec57600080fd5b610ef584610e5b565b925060208401359150604084013560ff81168114610f1257600080fd5b809150509250925092565b60008060408385031215610f3057600080fd5b610f3983610e5b565b946020939093013593505050565b634e487b7160e01b600052603260045260246000fd5b80518015158114610e7257600080fd5b600060a08284031215610f7f57600080fd5b60405160a0810181811067ffffffffffffffff82111715610fb057634e487b7160e01b600052604160045260246000fd5b80604052508251815260208301516020820152610fcf60408401610f5d565b604082015260608301516060820152610fea60808401610f5d565b60808201529392505050565b634e487b7160e01b600052601160045260246000fd5b80820180821115610d9857610d98610ff6565b60006001820161103157611031610ff6565b5060010190565b81810381811115610d9857610d98610ff6565b8082028115828204841417610d9857610d98610ff6565b60008261107f57634e487b7160e01b600052601260045260246000fd5b50049056fea2646970667358221220e1f5e9c46a7c916d39691d553d79901885f6935b097fcf31ca6675a400add6d964736f6c6343000811003360806040523480156200001157600080fd5b50604051620012f0380380620012f083398101604081905262000034916200052c565b60005b60068160ff1610156200018e576000808062000052620001bb565b6040805160a0810182526003548152602081018590526000918101829052606081018490526001608082015293965091945092508290036200009657600160408201525b8060026000888860ff1660068110620000b357620000b3620005da565b602090810291909101516001600160a01b031682528181019290925260409081016000208351815591830151600183015582015160028201805491151560ff19928316179055606083015160038084019190915560809093015160049092018054921515929091169190911790558660ff871660068110620001395762000139620005da565b6020908102919091015182546001810184556000938452919092200180546001600160a01b0319166001600160a01b039092169190911790555083925062000185915082905062000606565b91505062000037565b5050600091909155600180546001600160a01b0319166001600160a01b03909216919091179055620007bf565b600080600080620003976003805490506002620001d9919062000628565b604080517ff8f9cbfae6cc78fbefe7cdc3a1793dfcf4f0e8bbd8cec470b6a28a7a5a3e1efd81527ff5ecf1b3e9debc68e1d9cfabc5997135bfb7a7a3938b7b606b5b4b3f2f1f0ffe60208201527ff6e4ed9ff2d6b458eadcdf97bd91692de2d4da8fd2d0ac50c6ae9a8272523616818301527fc8c0b887b0a8a4489c948c7f847c6125746c645c544c444038302820181008ff60608201527ff7cae577eec2a03cf3bad76fb589591debb2dd67e0aa9834bea6925f6a4a2e0e60808201527fe39ed557db96902cd38ed14fad815115c786af479b7e8324736353433727170760a08201527fc976c13bb96e881cb166a933a55e490d9d56952b8d4e801485467d236242260660c08201527f753a6d1b65325d0c552a4d1345224105391a310b29122104190a11030902010060e0820152610100808201909252600160f81b6001600160801b68010000000000000000640100000000620100006010600460026000198c019081041790810417908104178881041790810417908104179081041790810417017e818283848586878898a8b8c8d8e8f929395969799a9b9d9e9faaeb6bedeeff0281900460ff039091015104600160ff1b909211020190565b905060006002821015620003ae57506000620003ca565b620003c76000620003c16002856200063e565b62000490565b90505b6000620003de81620003c16001866200063e565b600354909150600090620003f49083906200063e565b6200040190600162000628565b9050600062000420600283620004d460201b620003381790919060201c565b905060006200043f600284620004eb60201b6200034d1790919060201c565b90506001811015620004545750600162000463565b62000460828262000628565b90505b6000600162000473838862000628565b6200047f91906200063e565b9a9699509197509495505050505050565b6000825b82811015620004cd57620004aa81600262000751565b620004b6908362000628565b915080620004c4816200075f565b91505062000494565b5092915050565b6000620004e2828462000791565b90505b92915050565b6000620004e28284620007a8565b80516001600160a01b03811681146200051157600080fd5b919050565b634e487b7160e01b600052604160045260246000fd5b60008060006101008085870312156200054457600080fd5b84519350602062000557818701620004f9565b935086605f8701126200056957600080fd5b60405160c081016001600160401b03811182821017156200058e576200058e62000516565b604052918601918088841115620005a457600080fd5b604088015b84811015620005cb57620005bd81620004f9565b8252908301908301620005a9565b50508093505050509250925092565b634e487b7160e01b600052603260045260246000fd5b634e487b7160e01b600052601160045260246000fd5b600060ff821660ff81036200061f576200061f620005f0565b60010192915050565b80820180821115620004e557620004e5620005f0565b81810381811115620004e557620004e5620005f0565b600181815b8085111562000695578160001904821115620006795762000679620005f0565b808516156200068757918102915b93841c939080029062000659565b509250929050565b600082620006ae57506001620004e5565b81620006bd57506000620004e5565b8160018114620006d65760028114620006e15762000701565b6001915050620004e5565b60ff841115620006f557620006f5620005f0565b50506001821b620004e5565b5060208310610133831016604e8410600b841016171562000726575081810a620004e5565b62000732838362000654565b8060001904821115620007495762000749620005f0565b029392505050565b6000620004e283836200069d565b600060018201620007745762000774620005f0565b5060010190565b634e487b7160e01b600052601260045260246000fd5b600082620007a357620007a36200077b565b500690565b600082620007ba57620007ba6200077b565b500490565b610b2180620007cf6000396000f3fe608060405234801561001057600080fd5b50600436106100365760003560e01c80634420e4861461003b5780636f77926b14610050575b600080fd5b61004e6100493660046108fe565b6100b2565b005b61006361005e3660046108fe565b61029f565b6040516100a99190600060a08201905082518252602083015160208301526040830151151560408301526060830151606083015260808301511515608083015292915050565b60405180910390f35b6001546001600160a01b031633146101035760405162461bcd60e51b815260206004820152601060248201526f30b1b1b2b9b9903232b734b2b210181960811b604482015260640160405180910390fd5b6000806000610110610359565b6040805160a0810182526003548152602081018590526000918101829052606081018490526001608082015293965091945092508290036101615760016040820152831561016157610161846105f6565b6001600160a01b0385166000818152600260208181526040808420865181559186015160018084019190915590860151928201805493151560ff1994851617905560608601516003808401919091556080870151600490930180549315159390941692909217909255805491820181558083527fc2575a0e9e593c00f959f8c92f12db2869c3395a3b0502d05e2516446f71f85b90910180546001600160a01b03191690931790925581549091908690811061021f5761021f61092e565b600091825260208220015460015491546040516337eb1d9f60e21b81526001600160a01b0392831660048201819052602482019290925290935091169063dfac767c90604401600060405180830381600087803b15801561027f57600080fd5b505af1158015610293573d6000803e3d6000fd5b50505050505050505050565b6102d56040518060a001604052806000815260200160008152602001600015158152602001600081526020016000151581525090565b506001600160a01b0316600090815260026020818152604092839020835160a081018552815481526001820154928101929092529182015460ff908116151593820193909352600382015460608201526004909101549091161515608082015290565b6000610344828461095a565b90505b92915050565b60006103448284610984565b60008060008061053260038054905060026103749190610998565b604080517ff8f9cbfae6cc78fbefe7cdc3a1793dfcf4f0e8bbd8cec470b6a28a7a5a3e1efd81527ff5ecf1b3e9debc68e1d9cfabc5997135bfb7a7a3938b7b606b5b4b3f2f1f0ffe60208201527ff6e4ed9ff2d6b458eadcdf97bd91692de2d4da8fd2d0ac50c6ae9a8272523616818301527fc8c0b887b0a8a4489c948c7f847c6125746c645c544c444038302820181008ff60608201527ff7cae577eec2a03cf3bad76fb589591debb2dd67e0aa9834bea6925f6a4a2e0e60808201527fe39ed557db96902cd38ed14fad815115c786af479b7e8324736353433727170760a08201527fc976c13bb96e881cb166a933a55e490d9d56952b8d4e801485467d236242260660c08201527f753a6d1b65325d0c552a4d1345224105391a310b29122104190a11030902010060e0820152610100808201909252600160f81b6001600160801b68010000000000000000640100000000620100006010600460026000198c019081041790810417908104178881041790810417908104179081041790810417017e818283848586878898a8b8c8d8e8f929395969799a9b9d9e9faaeb6bedeeff0281900460ff039091015104600160ff1b909211020190565b9050600060028210156105475750600061055f565b61055c60006105576002856109ab565b6108c2565b90505b6000610570816105576001866109ab565b6003549091506000906105849083906109ab565b61058f906001610998565b9050600061059e826002610338565b905060006105ad83600261034d565b905060018110156105c0575060016105cd565b6105ca8282610998565b90505b600060016105db8388610998565b6105e591906109ab565b9a9699509197509495505050505050565b60006003828154811061060b5761060b61092e565b60009182526020808320909101546001600160a01b03168083526002808352604093849020845160a081018652815481526001820154948101949094528082015460ff9081161515958501959095526003810154606085015260040154909316151560808301529250905b600581116108bc578160400151156108bc57600060038360200151815481106106a1576106a161092e565b6000918252602090912001546001600160a01b03169050600382116107ad57600054600003610738576001546000805460405163c92cbc8b60e01b81526001600160a01b039093169263c92cbc8b926107019286929091906004016109be565b600060405180830381600087803b15801561071b57600080fd5b505af115801561072f573d6000803e3d6000fd5b50505050610823565b816002036107775760015460005460405163c92cbc8b60e01b81526001600160a01b039092169163c92cbc8b91610701918591906002906004016109be565b6001805460005460405163c92cbc8b60e01b81526001600160a01b039092169263c92cbc8b9261070192869290916004016109be565b6001805460005460405163c92cbc8b60e01b81526001600160a01b039092169263c92cbc8b926107e392869290916004016109be565b600060405180830381600087803b1580156107fd57600080fd5b505af1158015610811573d6000803e3d6000fd5b505050508160050361082357506108bc565b60026000600385602001518154811061083e5761083e61092e565b60009182526020808320909101546001600160a01b031683528281019390935260409182019020815160a08101835281548152600182015493810193909352600281015460ff9081161515928401929092526003810154606084015260040154161515608082015292508190506108b4816109e2565b915050610676565b50505050565b6000825b828110156108f7576108d9816002610adf565b6108e39083610998565b9150806108ef816109e2565b9150506108c6565b5092915050565b60006020828403121561091057600080fd5b81356001600160a01b038116811461092757600080fd5b9392505050565b634e487b7160e01b600052603260045260246000fd5b634e487b7160e01b600052601260045260246000fd5b60008261096957610969610944565b500690565b634e487b7160e01b600052601160045260246000fd5b60008261099357610993610944565b500490565b808201808211156103475761034761096e565b818103818111156103475761034761096e565b6001600160a01b03939093168352602083019190915260ff16604082015260600190565b6000600182016109f4576109f461096e565b5060010190565b600181815b80851115610a36578160001904821115610a1c57610a1c61096e565b80851615610a2957918102915b93841c9390800290610a00565b509250929050565b600082610a4d57506001610347565b81610a5a57506000610347565b8160018114610a705760028114610a7a57610a96565b6001915050610347565b60ff841115610a8b57610a8b61096e565b50506001821b610347565b5060208310610133831016604e8410600b8410161715610ab9575081810a610347565b610ac383836109fb565b8060001904821115610ad757610ad761096e565b029392505050565b60006103448383610a3e56fea264697066735822122017fbcc758e759316c22e1382df508ed40527ac9c35fbb21a53db8f16b03b0b8664736f6c63430008110033",
  "linkReferences": {},
  "deployedLinkReferences": {}
}