{
  "_format": "hh-sol-artifact-1",
  "contractName": "Core",
  "sourceName": "contracts/Core.sol",
  "abi": [
    {
      "inputs": [
        {
          "internalType": "address[]",
          "name": "sixFounders",
          "type": "address[]"
        }
      ],
      "stateMutability": "payable",
      "type": "constructor"
    },
    {
      "anonymous": false,
      "inputs": [
        {
          "indexed": false,
          "internalType": "address",
          "name": "",
          "type": "address"
        },
        {
          "indexed": false,
          "internalType": "uint256",
          "name": "",
          "type": "uint256"
        }
      ],
      "name": "UserRegistered",
      "type": "event"
    },
    {
      "anonymous": false,
      "inputs": [
        {
          "indexed": false,
          "internalType": "address",
          "name": "",
          "type": "address"
        },
        {
          "indexed": false,
          "internalType": "uint8",
          "name": "",
          "type": "uint8"
        },
        {
          "indexed": false,
          "internalType": "uint256",
          "name": "",
          "type": "uint256"
        }
      ],
      "name": "UserUpdated",
      "type": "event"
    },
    {
      "inputs": [
        {
          "internalType": "uint256",
          "name": "level",
          "type": "uint256"
        }
      ],
      "name": "getLevelContract",
      "outputs": [
        {
          "internalType": "address",
          "name": "",
          "type": "address"
        }
      ],
      "stateMutability": "view",
      "type": "function"
    },
    {
      "inputs": [
        {
          "internalType": "address",
          "name": "userAddress",
          "type": "address"
        }
      ],
      "name": "getUserFromCore",
      "outputs": [
        {
          "components": [
            {
              "internalType": "uint256",
              "name": "claims",
              "type": "uint256"
            },
            {
              "internalType": "uint256",
              "name": "gifts",
              "type": "uint256"
            },
            {
              "internalType": "uint256",
              "name": "level",
              "type": "uint256"
            },
            {
              "internalType": "address",
              "name": "whose",
              "type": "address"
            },
            {
              "internalType": "bool",
              "name": "isValue",
              "type": "bool"
            }
          ],
          "internalType": "struct Core.UserGlobal",
          "name": "user",
          "type": "tuple"
        }
      ],
      "stateMutability": "view",
      "type": "function"
    },
    {
      "inputs": [
        {
          "internalType": "uint256",
          "name": "matrixIdx",
          "type": "uint256"
        },
        {
          "internalType": "address",
          "name": "userWallet",
          "type": "address"
        }
      ],
      "name": "getUserFromMatrix",
      "outputs": [
        {
          "components": [
            {
              "internalType": "uint256",
              "name": "index",
              "type": "uint256"
            },
            {
              "internalType": "uint256",
              "name": "parent",
              "type": "uint256"
            },
            {
              "internalType": "bool",
              "name": "isRight",
              "type": "bool"
            },
            {
              "internalType": "uint256",
              "name": "plateau",
              "type": "uint256"
            },
            {
              "internalType": "bool",
              "name": "isValue",
              "type": "bool"
            }
          ],
          "internalType": "struct MatrixTemplate.User",
          "name": "user",
          "type": "tuple"
        }
      ],
      "stateMutability": "view",
      "type": "function"
    },
    {
      "inputs": [],
      "name": "payUnit",
      "outputs": [
        {
          "internalType": "uint256",
          "name": "",
          "type": "uint256"
        }
      ],
      "stateMutability": "view",
      "type": "function"
    },
    {
      "inputs": [
        {
          "internalType": "address",
          "name": "whose",
          "type": "address"
        }
      ],
      "name": "register",
      "outputs": [],
      "stateMutability": "payable",
      "type": "function"
    },
    {
      "inputs": [
        {
          "internalType": "address",
          "name": "wallet",
          "type": "address"
        },
        {
          "internalType": "uint256",
          "name": "matrixIndex",
          "type": "uint256"
        }
      ],
      "name": "sendHalf",
      "outputs": [],
      "stateMutability": "nonpayable",
      "type": "function"
    },
    {
      "inputs": [
        {
          "internalType": "address",
          "name": "userAddress",
          "type": "address"
        },
        {
          "internalType": "uint256",
          "name": "matrixIndex",
          "type": "uint256"
        },
        {
          "internalType": "uint8",
          "name": "field",
          "type": "uint8"
        }
      ],
      "name": "updateUser",
      "outputs": [],
      "stateMutability": "nonpayable",
      "type": "function"
    },
    {
      "inputs": [
        {
          "internalType": "uint256",
          "name": "amount",
          "type": "uint256"
        }
      ],
      "name": "withdrawClaim",
      "outputs": [],
      "stateMutability": "nonpayable",
      "type": "function"
    },
    {
      "stateMutability": "payable",
      "type": "receive"
    }
  ],
  "bytecode": "0x6080604052662386f26fc10000600055601360015560405162002224380380620022248339810160408190526200003691620001e2565b806000815181106200004c576200004c620002b4565b6020026020010151601660006101000a8154816001600160a01b0302191690836001600160a01b0316021790555060005b6001548111620001145760008130846040516200009a90620001a1565b620000a893929190620002ca565b604051809103906000f080158015620000c5573d6000803e3d6000fd5b5090508060028360148110620000df57620000df620002b4565b0180546001600160a01b0319166001600160a01b039290921691909117905550806200010b816200032d565b9150506200007d565b50506040805160a08101825260008082526020808301828152600180548587019081526016546001600160a01b03908116606088018181526080890185815291885260179096529790952095518655915190850155516002840155516003909201805493511515600160a01b026001600160a81b0319909416929091169190911791909117905562000355565b610f3a80620012ea83390190565b634e487b7160e01b600052604160045260246000fd5b80516001600160a01b0381168114620001dd57600080fd5b919050565b60006020808385031215620001f657600080fd5b82516001600160401b03808211156200020e57600080fd5b818501915085601f8301126200022357600080fd5b815181811115620002385762000238620001af565b8060051b604051601f19603f83011681018181108582111715620002605762000260620001af565b6040529182528482019250838101850191888311156200027f57600080fd5b938501935b82851015620002a8576200029885620001c5565b8452938501939285019262000284565b98975050505050505050565b634e487b7160e01b600052603260045260246000fd5b600060608201858352602060018060a01b038087168286015260606040860152828651808552608087019150838801945060005b818110156200031e578551841683529484019491840191600101620002fe565b50909998505050505050505050565b6000600182016200034e57634e487b7160e01b600052601160045260246000fd5b5060010190565b610f8580620003656000396000f3fe60806040526004361061007f5760003560e01c806394328eab1161004e57806394328eab146101b7578063a224dcb7146101db578063c92cbc8b146101fb578063dfac767c1461021b57600080fd5b80634420e486146100955780635f8e7d03146100a85780638212e2bb1461011957806390e7af8f1461017f57600080fd5b366100905761008e333461023b565b005b600080fd5b61008e6100a3366004610d42565b6104b3565b3480156100b457600080fd5b506100c86100c3366004610d42565b610738565b60405161011091908151815260208083015190820152604080830151908201526060808301516001600160a01b03169082015260809182015115159181019190915260a00190565b60405180910390f35b34801561012557600080fd5b50610139610134366004610d5d565b6107da565b6040516101109190600060a08201905082518252602083015160208301526040830151151560408301526060830151606083015260808301511515608083015292915050565b34801561018b57600080fd5b5061019f61019a366004610d89565b610897565b6040516001600160a01b039091168152602001610110565b3480156101c357600080fd5b506101cd60005481565b604051908152602001610110565b3480156101e757600080fd5b5061008e6101f6366004610d89565b6108bd565b34801561020757600080fd5b5061008e610216366004610da2565b61096d565b34801561022757600080fd5b5061008e610236366004610de8565b610b40565b6001600160a01b03821660009081526017602052604081206003015481908190600160a01b900460ff16156102ca576001600160a01b03851660009081526017602052604090205461028e908590610c57565b6001600160a01b0386166000908152601760205260409020600201549093506102b8906001610c57565b91506102c382610c69565b90506102d4565b5050600080548392505b601382116104ac575b8083106104ac57601382116104ac576001600160a01b038516600090815260176020526040902060030154600160a01b900460ff161561033e576001600160a01b0385166000908152601760205260409020600281018390558390556103c6565b6040805160a081018252848152600060208083018281528385018381526016546001600160a01b03908116606087019081526001608088018181528e84168852601790965297909520955186559151958501959095559351600284015590516003909201805491511515600160a01b026001600160a81b031990921692909316919091171790555b600282601481106103d9576103d9610e12565b0154604051632210724360e11b81526001600160a01b03878116600483015290911690634420e48690602401600060405180830381600087803b15801561041f57600080fd5b505af1158015610433573d6000803e3d6000fd5b5050604080516001600160a01b0389168152602081018690527fe29d35093005f4d575e1003753426b57a7f64378ba73332eef9c6ccc2b8decd6935001905060405180910390a182156104a75761048a8382610ca4565b9250610497816002610cb0565b90506104a4826001610c57565b91505b6102dd565b5050505050565b33600090815260176020526040902060030154600160a01b900460ff16156105225760405162461bcd60e51b815260206004820152601760248201527f7573657220616c7265616479207265676973746572656400000000000000000060448201526064015b60405180910390fd5b600080546001600160a01b03831682526017602052604082206001015410156105d557600054610553906001610c57565b34106105b55760405162461bcd60e51b815260206004820152602b60248201527f796f752070616964206c657373207468616e2074686520636f7374206f66207260448201526a32b3b4b9ba3930ba34b7b760a91b6064820152608401610519565b6000543411156105d0576000546105cd903490610ca4565b90505b61061b565b600080546001600160a01b038416825260176020526040909120600101546105fc91610ca4565b6001600160a01b03831660009081526017602052604090206001015550345b6040805160a081018252600080825260208083018281528385018381526001600160a01b03808916606087019081526001608088018181523388526017909652978620965187559251968601969096555160028086019190915590516003909401805492511515600160a01b026001600160a81b03199093169490951693909317179092550154604051632210724360e11b81523360048201526001600160a01b0390911690634420e48690602401600060405180830381600087803b1580156106e457600080fd5b505af11580156106f8573d6000803e3d6000fd5b50505050600081111561073457604051339082156108fc029083906000818181858888f19350505050158015610732573d6000803e3d6000fd5b505b5050565b6107756040518060a0016040528060008152602001600081526020016000815260200160006001600160a01b031681526020016000151581525090565b506001600160a01b03908116600090815260176020908152604091829020825160a081018452815481526001820154928101929092526002810154928201929092526003909101549182166060820152600160a01b90910460ff161515608082015290565b6108106040518060a001604052806000815260200160008152602001600015158152602001600081526020016000151581525090565b6002836014811061082357610823610e12565b0154604051636f77926b60e01b81526001600160a01b03848116600483015290911690636f77926b9060240160a060405180830381865afa15801561086c573d6000803e3d6000fd5b505050506040513d601f19601f820116820180604052508101906108909190610e38565b9392505050565b6000600282601481106108ac576108ac610e12565b01546001600160a01b031692915050565b3360009081526017602052604090205481101561092c57336000908152601760205260409020546108ee9082610ca4565b33600081815260176020526040808220939093559151909183156108fc02918491818181858888f19350505050158015610734573d6000803e3d6000fd5b33600081815260176020526040808220805490839055905190929183156108fc02918491818181858888f19350505050158015610732573d6000803e3d6000fd5b61097633610cbc565b6109b55760405162461bcd60e51b815260206004820152601060248201526f6163636573732064656e69656420303160801b6044820152606401610519565b60006109c083610c69565b90508160ff16600003610a14576001600160a01b0384166000908152601760205260409020600101546109f39082610c57565b6001600160a01b038516600090815260176020526040902060010155610aa4565b8160ff16600103610a60576001600160a01b038416600090815260176020526040902054610a429082610c57565b6001600160a01b038516600090815260176020526040902055610aa4565b8160ff16600203610aa457610aa2610a7784610c69565b6001600160a01b03808716600090815260176020526040808220600301549092168152205490610c57565b505b6000610ab1826002610cb0565b9050808210158015610ad157506016546001600160a01b03868116911614155b8015610add5750601384105b15610aed57610aed85600061023b565b604080516001600160a01b038716815260ff851660208201529081018290527f5bb010dc69d7527dd8427d347a09974d8085a9e2874e9eb9bd28fb234145c3e89060600160405180910390a15050505050565b610b4933610cbc565b610b955760405162461bcd60e51b815260206004820181905260248201527f6163636573732064656e69656420666f7220433a3a5f73656e6448616c6628296044820152606401610519565b60138110610ba1575050565b6000610bb76002610bb184610c69565b90610d1a565b90506000836001600160a01b03168260405160006040518083038185875af1925050503d8060008114610c06576040519150601f19603f3d011682016040523d82523d6000602084013e610c0b565b606091505b5050905080610c515760405162461bcd60e51b81526020600482015260126024820152712330b4b632b2103a379039b2b7321021272160711b6044820152606401610519565b50505050565b60006108908284610ed7565b92915050565b600080548215610c635760005b83811015610c9d57610c89826002610cb0565b915080610c9581610eea565b915050610c76565b5092915050565b60006108908284610f03565b60006108908284610f16565b6000805b6014811015610d1157826001600160a01b031660028260148110610ce657610ce6610e12565b01546001600160a01b031603610cff5750600192915050565b80610d0981610eea565b915050610cc0565b50600092915050565b60006108908284610f2d565b80356001600160a01b0381168114610d3d57600080fd5b919050565b600060208284031215610d5457600080fd5b61089082610d26565b60008060408385031215610d7057600080fd5b82359150610d8060208401610d26565b90509250929050565b600060208284031215610d9b57600080fd5b5035919050565b600080600060608486031215610db757600080fd5b610dc084610d26565b925060208401359150604084013560ff81168114610ddd57600080fd5b809150509250925092565b60008060408385031215610dfb57600080fd5b610e0483610d26565b946020939093013593505050565b634e487b7160e01b600052603260045260246000fd5b80518015158114610d3d57600080fd5b600060a08284031215610e4a57600080fd5b60405160a0810181811067ffffffffffffffff82111715610e7b57634e487b7160e01b600052604160045260246000fd5b80604052508251815260208301516020820152610e9a60408401610e28565b604082015260608301516060820152610eb560808401610e28565b60808201529392505050565b634e487b7160e01b600052601160045260246000fd5b80820180821115610c6357610c63610ec1565b600060018201610efc57610efc610ec1565b5060010190565b81810381811115610c6357610c63610ec1565b8082028115828204841417610c6357610c63610ec1565b600082610f4a57634e487b7160e01b600052601260045260246000fd5b50049056fea2646970667358221220b1901610491515afa9d390967dd89d0a2d896d08256af951d80ed9e85aa2ed6064736f6c6343000811003360806040523480156200001157600080fd5b5060405162000f3a38038062000f3a8339810160408190526200003491620001ca565b60005b60068160ff1610156200016a576040518060a001604052806000815260200160008152602001600015158152602001600081526020016001151581525060026000848460ff1681518110620000905762000090620002bb565b6020908102919091018101516001600160a01b031682528181019290925260409081016000208351815591830151600183015582015160028201805491151560ff19928316179055606083015160038084019190915560809093015160049092018054921515929091169190911790558251839060ff84169081106200011a576200011a620002bb565b60209081029190910181015182546001810184556000938452919092200180546001600160a01b0319166001600160a01b03909216919091179055806200016181620002d1565b91505062000037565b5050600091909155600180546001600160a01b0319166001600160a01b03909216919091179055620002ff565b80516001600160a01b0381168114620001af57600080fd5b919050565b634e487b7160e01b600052604160045260246000fd5b600080600060608486031215620001e057600080fd5b835192506020620001f381860162000197565b60408601519093506001600160401b03808211156200021157600080fd5b818701915087601f8301126200022657600080fd5b8151818111156200023b576200023b620001b4565b8060051b604051601f19603f83011681018181108582111715620002635762000263620001b4565b60405291825284820192508381018501918a8311156200028257600080fd5b938501935b82851015620002ab576200029b8562000197565b8452938501939285019262000287565b8096505050505050509250925092565b634e487b7160e01b600052603260045260246000fd5b600060ff821660ff8103620002f657634e487b7160e01b600052601160045260246000fd5b60010192915050565b610c2b806200030f6000396000f3fe608060405234801561001057600080fd5b50600436106100365760003560e01c80634420e4861461003b5780636f77926b14610050575b600080fd5b61004e6100493660046109b3565b6100b2565b005b61006361005e3660046109b3565b610550565b6040516100a99190600060a08201905082518252602083015160208301526040830151151560408301526060830151606083015260808301511515608083015292915050565b60405180910390f35b6001546001600160a01b031633146101035760405162461bcd60e51b815260206004820152601060248201526f30b1b1b2b9b9903232b734b2b210181960811b604482015260640160405180910390fd5b6101396040518060a001604052806000815260200160008152602001600015158152602001600081526020016000151581525090565b60035460009061030c9061014e9060026109f9565b604080517ff8f9cbfae6cc78fbefe7cdc3a1793dfcf4f0e8bbd8cec470b6a28a7a5a3e1efd81527ff5ecf1b3e9debc68e1d9cfabc5997135bfb7a7a3938b7b606b5b4b3f2f1f0ffe60208201527ff6e4ed9ff2d6b458eadcdf97bd91692de2d4da8fd2d0ac50c6ae9a8272523616818301527fc8c0b887b0a8a4489c948c7f847c6125746c645c544c444038302820181008ff60608201527ff7cae577eec2a03cf3bad76fb589591debb2dd67e0aa9834bea6925f6a4a2e0e60808201527fe39ed557db96902cd38ed14fad815115c786af479b7e8324736353433727170760a08201527fc976c13bb96e881cb166a933a55e490d9d56952b8d4e801485467d236242260660c08201527f753a6d1b65325d0c552a4d1345224105391a310b29122104190a11030902010060e0820152610100808201909252600160f81b6001600160801b68010000000000000000640100000000620100006010600460026000198c019081041790810417908104178881041790810417908104179081041790810417017e818283848586878898a8b8c8d8e8f929395969799a9b9d9e9faaeb6bedeeff0281900460ff039091015104600160ff1b909211020190565b90506000600282101561032157506000610339565b6103366000610331600285610a0c565b6105e9565b90505b600061034a81610331600186610a0c565b60035490915060009061035e908390610a0c565b6103699060016109f9565b90506000610378826002610625565b9050600061038783600261063a565b9050600181101561039a575060016103a7565b6103a482826109f9565b90505b600060016103b583886109f9565b6103bf9190610a0c565b6040805160a0810182526003548152602081018390526000918101829052606081018a905260016080820152995090915083900361040e5780156104065761040681610646565b600160408901525b6001600160a01b03891660008181526002602081815260408084208d518155918d0151600180840191909155908d0151928201805493151560ff1994851617905560608d015160038084019190915560808e0151600490930180549315159390941692909217909255805491820181558083527fc2575a0e9e593c00f959f8c92f12db2869c3395a3b0502d05e2516446f71f85b90910180546001600160a01b0319169093179092558154909190839081106104cc576104cc610a1f565b600091825260208220015460015491546040516337eb1d9f60e21b81526001600160a01b0392831660048201819052602482019290925290935091169063dfac767c90604401600060405180830381600087803b15801561052c57600080fd5b505af1158015610540573d6000803e3d6000fd5b5050505050505050505050505050565b6105866040518060a001604052806000815260200160008152602001600015158152602001600081526020016000151581525090565b506001600160a01b0316600090815260026020818152604092839020835160a081018552815481526001820154928101929092529182015460ff908116151593820193909352600382015460608201526004909101549091161515608082015290565b6000825b8281101561061e57610600816002610b19565b61060a90836109f9565b91508061061681610b25565b9150506105ed565b5092915050565b60006106318284610b54565b90505b92915050565b60006106318284610b68565b60006003828154811061065b5761065b610a1f565b60009182526020808320909101546001600160a01b03168083526002808352604093849020845160a081018652815481526001820154948101949094528082015460ff9081161515958501959095526003810154606085015260040154909316151560808301529250905b600581116109435781604001511561094357600060038360200151815481106106f1576106f1610a1f565b9060005260206000200160009054906101000a90046001600160a01b0316905061073f6040518060400160405280600c81526020016b69696969696969696932333760a01b81525083610949565b60038211610834576000546000036107bf576001546000805460405163c92cbc8b60e01b81526001600160a01b039093169263c92cbc8b92610788928692909190600401610b7c565b600060405180830381600087803b1580156107a257600080fd5b505af11580156107b6573d6000803e3d6000fd5b505050506108aa565b816002036107fe5760015460005460405163c92cbc8b60e01b81526001600160a01b039092169163c92cbc8b9161078891859190600290600401610b7c565b6001805460005460405163c92cbc8b60e01b81526001600160a01b039092169263c92cbc8b926107889286929091600401610b7c565b6001805460005460405163c92cbc8b60e01b81526001600160a01b039092169263c92cbc8b9261086a9286929091600401610b7c565b600060405180830381600087803b15801561088457600080fd5b505af1158015610898573d6000803e3d6000fd5b50505050816005036108aa5750610943565b6002600060038560200151815481106108c5576108c5610a1f565b60009182526020808320909101546001600160a01b031683528281019390935260409182019020815160a08101835281548152600182015493810193909352600281015460ff90811615159284019290925260038101546060840152600401541615156080820152925081905061093b81610b25565b9150506106c6565b50505050565b61098e828260405160240161095f929190610ba0565b60408051601f198184030181529190526020810180516001600160e01b03166309710a9d60e41b179052610992565b5050565b80516a636f6e736f6c652e6c6f67602083016000808483855afa5050505050565b6000602082840312156109c557600080fd5b81356001600160a01b03811681146109dc57600080fd5b9392505050565b634e487b7160e01b600052601160045260246000fd5b80820180821115610634576106346109e3565b81810381811115610634576106346109e3565b634e487b7160e01b600052603260045260246000fd5b600181815b80851115610a70578160001904821115610a5657610a566109e3565b80851615610a6357918102915b93841c9390800290610a3a565b509250929050565b600082610a8757506001610634565b81610a9457506000610634565b8160018114610aaa5760028114610ab457610ad0565b6001915050610634565b60ff841115610ac557610ac56109e3565b50506001821b610634565b5060208310610133831016604e8410600b8410161715610af3575081810a610634565b610afd8383610a35565b8060001904821115610b1157610b116109e3565b029392505050565b60006106318383610a78565b600060018201610b3757610b376109e3565b5060010190565b634e487b7160e01b600052601260045260246000fd5b600082610b6357610b63610b3e565b500690565b600082610b7757610b77610b3e565b500490565b6001600160a01b03939093168352602083019190915260ff16604082015260600190565b604081526000835180604084015260005b81811015610bce5760208187018101516060868401015201610bb1565b506000606082850101526060601f19601f830116840101915050826020830152939250505056fea26469706673582212204294330043e47872eb94d014477c9029eed50c43cbb18fc23b2e5a0c63a3c4b564736f6c63430008110033",
  "linkReferences": {},
  "deployedLinkReferences": {}
}