{
  "_format": "hh-sol-artifact-1",
  "contractName": "Core",
  "sourceName": "contracts/Core.sol",
  "abi": [
    {
      "inputs": [],
      "stateMutability": "payable",
      "type": "constructor"
    },
    {
      "anonymous": false,
      "inputs": [
        {
          "indexed": false,
          "internalType": "address",
          "name": "",
          "type": "address"
        },
        {
          "indexed": false,
          "internalType": "uint256",
          "name": "",
          "type": "uint256"
        }
      ],
      "name": "UserRegistered",
      "type": "event"
    },
    {
      "anonymous": false,
      "inputs": [
        {
          "indexed": false,
          "internalType": "address",
          "name": "",
          "type": "address"
        },
        {
          "indexed": false,
          "internalType": "uint8",
          "name": "",
          "type": "uint8"
        },
        {
          "indexed": false,
          "internalType": "uint256",
          "name": "",
          "type": "uint256"
        }
      ],
      "name": "UserUpdated",
      "type": "event"
    },
    {
      "inputs": [
        {
          "internalType": "uint256",
          "name": "level",
          "type": "uint256"
        }
      ],
      "name": "getLevelContract",
      "outputs": [
        {
          "internalType": "address",
          "name": "",
          "type": "address"
        }
      ],
      "stateMutability": "view",
      "type": "function"
    },
    {
      "inputs": [
        {
          "internalType": "address",
          "name": "userAddress",
          "type": "address"
        }
      ],
      "name": "getUserFromCore",
      "outputs": [
        {
          "components": [
            {
              "internalType": "uint256",
              "name": "claims",
              "type": "uint256"
            },
            {
              "internalType": "uint256",
              "name": "gifts",
              "type": "uint256"
            },
            {
              "internalType": "uint256",
              "name": "level",
              "type": "uint256"
            },
            {
              "internalType": "address",
              "name": "whose",
              "type": "address"
            },
            {
              "internalType": "bool",
              "name": "isValue",
              "type": "bool"
            }
          ],
          "internalType": "struct Core.UserGlobal",
          "name": "user",
          "type": "tuple"
        }
      ],
      "stateMutability": "view",
      "type": "function"
    },
    {
      "inputs": [
        {
          "internalType": "uint256",
          "name": "matrixIdx",
          "type": "uint256"
        },
        {
          "internalType": "address",
          "name": "userWallet",
          "type": "address"
        }
      ],
      "name": "getUserFromMatrix",
      "outputs": [
        {
          "components": [
            {
              "internalType": "uint256",
              "name": "index",
              "type": "uint256"
            },
            {
              "internalType": "uint256",
              "name": "parent",
              "type": "uint256"
            },
            {
              "internalType": "bool",
              "name": "isRight",
              "type": "bool"
            },
            {
              "internalType": "uint256",
              "name": "plateau",
              "type": "uint256"
            },
            {
              "internalType": "bool",
              "name": "isValue",
              "type": "bool"
            }
          ],
          "internalType": "struct MatrixTemplate.User",
          "name": "user",
          "type": "tuple"
        }
      ],
      "stateMutability": "view",
      "type": "function"
    },
    {
      "inputs": [],
      "name": "payUnit",
      "outputs": [
        {
          "internalType": "uint256",
          "name": "",
          "type": "uint256"
        }
      ],
      "stateMutability": "view",
      "type": "function"
    },
    {
      "inputs": [
        {
          "internalType": "address",
          "name": "whose",
          "type": "address"
        }
      ],
      "name": "register",
      "outputs": [],
      "stateMutability": "payable",
      "type": "function"
    },
    {
      "inputs": [
        {
          "internalType": "address",
          "name": "wallet",
          "type": "address"
        },
        {
          "internalType": "uint256",
          "name": "matrixIndex",
          "type": "uint256"
        }
      ],
      "name": "sendHalf",
      "outputs": [],
      "stateMutability": "nonpayable",
      "type": "function"
    },
    {
      "inputs": [
        {
          "internalType": "address",
          "name": "userAddress",
          "type": "address"
        },
        {
          "internalType": "uint256",
          "name": "matrixIndex",
          "type": "uint256"
        },
        {
          "internalType": "uint8",
          "name": "field",
          "type": "uint8"
        }
      ],
      "name": "updateUser",
      "outputs": [],
      "stateMutability": "nonpayable",
      "type": "function"
    },
    {
      "stateMutability": "payable",
      "type": "receive"
    }
  ],
  "bytecode": "0x662386f26fc10000600055601360015560c0604052601760809081527f433a20636f6e7374727563746f72207374617274696e6700000000000000000060a0526200005690620003b5602090811b6200120117901c565b60005a9050620000926040518060400160405280600881526020016733b0b9b632b33a1d60c11b815250826200040360201b620002ea1760201c565b601680546001600160a01b0319163390811790915560408051808201909152601c81527f636f6e7374727563746f7228292c206d73672e73656e64657220697300000000602080830191909152620000f49290620002a162000454821b17901c565b60005b6001548111620002ae576200012660405180602001604052806000815250620003b560201b620012011760201c565b6200015c604051806040016040528060088152602001675f5f5f5f5f5f5f5f60c01b815250620003b560201b620012011760201c565b6200018f604051806040016040528060048152602001632490169f60e11b815250826200040360201b620002ea1760201c565b620001cb6040518060400160405280600d81526020016c6164647265737328746869732960981b815250306200045460201b620002a11760201c565b6000338230604051620001de90620004c2565b6001600160a01b03938416815260208101929092529091166040820152606001604051809103906000f0801580156200021b573d6000803e3d6000fd5b5090508060028360148110620002355762000235620004d0565b0160006101000a8154816001600160a01b0302191690836001600160a01b03160217905550620002986040518060400160405280600f81526020016e36b0ba3934bc24b739ba30b731b29d60891b815250826200045460201b620002a11760201c565b5080620002a581620004fc565b915050620000f7565b6040805160a08101825260008082526020808301828152600180548587019081526016546001600160a01b03908116606088019081526080880184815233885260179096529786209651875592519186019190915551600285015593516003909301805491511515600160a01b026001600160a81b03199092169390941692909217919091179091555a62000344908462000518565b90506200037d6040518060400160405280600881526020016733b0b9aab9b2b21d60c11b815250826200040360201b620002ea1760201c565b620003ac6040518060600160405280603181526020016200301660319139620003b560201b620012011760201c565b505050620005e8565b6200040081604051602401620003cc91906200057c565b60408051601f198184030181529190526020810180516001600160e01b0390811663104c13eb60e21b17909152620004a116565b50565b6200045082826040516024016200041c92919062000598565b60408051601f198184030181529190526020810180516001600160e01b039081166309710a9d60e41b17909152620004a116565b5050565b6200045082826040516024016200046d929190620005bc565b60408051601f198184030181529190526020810180516001600160e01b0390811663319af33360e01b17909152620004a116565b80516a636f6e736f6c652e6c6f67602083016000808483855afa5050505050565b6112778062001d9f83390190565b634e487b7160e01b600052603260045260246000fd5b634e487b7160e01b600052601160045260246000fd5b600060018201620005115762000511620004e6565b5060010190565b818103818111156200052e576200052e620004e6565b92915050565b6000815180845260005b818110156200055c576020818501810151868301820152016200053e565b506000602082860101526020601f19601f83011685010191505092915050565b60208152600062000591602083018462000534565b9392505050565b604081526000620005ad604083018562000534565b90508260208301529392505050565b604081526000620005d1604083018562000534565b905060018060a01b03831660208301529392505050565b6117a780620005f86000396000f3fe6080604052600436106100745760003560e01c806390e7af8f1161004e57806390e7af8f1461020557806394328eab1461023d578063c92cbc8b14610261578063dfac767c1461028157600080fd5b80634420e4861461011b5780635f8e7d031461012e5780638212e2bb1461019f57600080fd5b36610116576100b86040518060400160405280601981526020017f433a20726563656976696e672066726f6d2077616c6c65743a00000000000000815250336102a1565b6100e0604051806040016040528060068152602001653b30b63ab29d60d11b815250346102ea565b61010a6040518060400160405280600881526020016733b0b9b632b33a1d60c11b8152505a6102ea565b610114333461032f565b005b600080fd5b610114610129366004611494565b610834565b34801561013a57600080fd5b5061014e610149366004611494565b610ad3565b60405161019691908151815260208083015190820152604080830151908201526060808301516001600160a01b03169082015260809182015115159181019190915260a00190565b60405180910390f35b3480156101ab57600080fd5b506101bf6101ba3660046114af565b610b75565b6040516101969190600060a08201905082518252602083015160208301526040830151151560408301526060830151606083015260808301511515608083015292915050565b34801561021157600080fd5b506102256102203660046114db565b610c32565b6040516001600160a01b039091168152602001610196565b34801561024957600080fd5b5061025360005481565b604051908152602001610196565b34801561026d57600080fd5b5061011461027c3660046114f4565b610c58565b34801561028d57600080fd5b5061011461029c36600461153a565b610fb3565b6102e682826040516024016102b79291906115aa565b60408051601f198184030181529190526020810180516001600160e01b031663319af33360e01b179052611247565b5050565b6102e682826040516024016103009291906115d4565b60408051601f198184030181529190526020810180516001600160e01b03166309710a9d60e41b179052611247565b61036d6040518060400160405280601e81526020017f433a205f6d61747269636573526567697374726174696f6e2073746172740000815250611201565b6103a1604051806040016040528060128152602001713a3930b739b332b93932b220b6b7bab73a1d60711b815250826102ea565b60008060006103e56040518060400160405280601781526020017f6d61747269636573526567697374726174696f6e28293e000000000000000000815250866102a1565b610419604051806040016040528060128152602001713a3930b739b332b93932b220b6b7bab73a1d60711b815250856102ea565b6001600160a01b038516600090815260176020526040902060030154600160a01b900460ff16156104a4576001600160a01b038516600090815260176020526040902054610468908590611268565b6001600160a01b038616600090815260176020526040902060020154909350610492906001611268565b915061049d8261127a565b90506104ae565b5050600080548392505b601382116107ef575b8083106107ef5760138211156104fc576104f76040518060400160405280600f81526020016e6d6178206c6576656c20697320313960881b815250611201565b6107ef565b61051d6040518060600160405280602b8152602001611747602b9139611201565b6105496040518060400160405280600a815260200169433a2062616c616e636560b01b815250846102ea565b6105736040518060400160405280600881526020016710ce881b195d995b60c21b815250836102ea565b6105a56040518060400160405280601081526020016f433a207265676973746572507269636560801b815250826102ea565b6001600160a01b038516600090815260176020526040902060030154600160a01b900460ff16156105f7576001600160a01b03851660009081526017602052604090206002810183905583905561067f565b6040805160a081018252848152600060208083018281528385018381526016546001600160a01b03908116606087019081526001608088018181528e84168852601790965297909520955186559151958501959095559351600284015590516003909201805491511515600160a01b026001600160a81b031990921692909316919091171790555b60028260148110610692576106926115f6565b0154604051632210724360e11b81526001600160a01b03878116600483015290911690634420e48690602401600060405180830381600087803b1580156106d857600080fd5b505af11580156106ec573d6000803e3d6000fd5b5050604080516001600160a01b0389168152602081018690527fe29d35093005f4d575e1003753426b57a7f64378ba73332eef9c6ccc2b8decd6935001905060405180910390a182156107ea576107438382611369565b9250610750816002611375565b905061075d826001611268565b915061078c6040518060400160405280600b81526020016a6e65772062616c616e636560a81b815250846102ea565b6107b7604051806040016040528060098152602001681b995dc81b195d995b60ba1b815250836102ea565b6107ea604051806040016040528060118152602001706e6577207265676973746572507269636560781b815250826102ea565b6104b7565b61082d6040518060400160405280601c81526020017f433a205f6d61747269636573526567697374726174696f6e20656e6400000000815250611201565b5050505050565b33600090815260176020526040902060030154600160a01b900460ff16156108a35760405162461bcd60e51b815260206004820152601760248201527f7573657220616c7265616479207265676973746572656400000000000000000060448201526064015b60405180910390fd5b6108d36040518060400160405280600f81526020016e54686572652072656769737465722160881b815250611201565b6108dc81611381565b6001600160a01b038116600090815260176020526040902060010154610901906113c9565b600080546001600160a01b03831682526017602052604090912060010154106109565760405133903480156108fc02916000818181858888f19350505050158015610950573d6000803e3d6000fd5b506109f6565b60005434111561099b5760005433906108fc906109739034611622565b6040518115909202916000818181858888f19350505050158015610950573d6000803e3d6000fd5b6000543410156109f65760005434146109f65760405162461bcd60e51b815260206004820152601f60248201527f646964206e6f74207061792074686520726571756972656420616d6f756e7400604482015260640161089a565b6040805160a081018252600080825260208083018281528385018381526001600160a01b03808816606087019081526001608088018181523388526017909652978620965187559251968601969096555160028086019190915590516003909401805492511515600160a01b026001600160a81b03199093169490951693909317179092550154604051632210724360e11b81523360048201526001600160a01b0390911690634420e48690602401600060405180830381600087803b158015610abf57600080fd5b505af115801561082d573d6000803e3d6000fd5b610b106040518060a0016040528060008152602001600081526020016000815260200160006001600160a01b031681526020016000151581525090565b506001600160a01b03908116600090815260176020908152604091829020825160a081018452815481526001820154928101929092526002810154928201929092526003909101549182166060820152600160a01b90910460ff161515608082015290565b610bab6040518060a001604052806000815260200160008152602001600015158152602001600081526020016000151581525090565b60028360148110610bbe57610bbe6115f6565b0154604051636f77926b60e01b81526001600160a01b03848116600483015290911690636f77926b9060240160a060405180830381865afa158015610c07573d6000803e3d6000fd5b505050506040513d601f19601f82011682018060405250810190610c2b9190611645565b9392505050565b600060028260148110610c4757610c476115f6565b01546001600160a01b031692915050565b610c896040518060400160405280601081526020016f433a205f75706461746555736572282960801b815250611201565b610cb66040518060400160405280600b81526020016a3337b91036b0ba3934bc1d60a91b815250836102ea565b610ce16040518060400160405280600981526020016830b732103ab9b2b91d60b91b815250846102a1565b610d236040518060400160405280601881526020017f30202d2067696674732c2031202d20636c61696d73202d3e00000000000000008152508260ff166102ea565b610d2c3361140e565b610d685760405162461bcd60e51b815260206004820152600d60248201526c1858d8d95cdcc819195b9a5959609a1b604482015260640161089a565b6000610d738361127a565b9050610d9e6040518060400160405280600781526020016630b6b7bab73a1d60c91b815250826102ea565b8160ff16600003610df0576001600160a01b038416600090815260176020526040902060010154610dcf9082611268565b6001600160a01b038516600090815260176020526040902060010155610ee7565b8160ff16600103610ea357610e626040518060400160405280601a81526020017f75706461746564207573657220636c61696d73206265666f726500000000000081525060176000876001600160a01b03166001600160a01b03168152602001908152602001600020600001546102ea565b6001600160a01b038416600090815260176020526040902054610e859082611268565b6001600160a01b038516600090815260176020526040902055610ee7565b8160ff16600203610ee757610ee5610eba8461127a565b6001600160a01b03808716600090815260176020526040808220600301549092168152205490611268565b505b6000610ef4826002611375565b9050610f266040518060400160405280600e81526020016d3732b2b2103732bbab30b63ab29d60911b815250826102ea565b808210158015610f4457506016546001600160a01b03868116911614155b8015610f505750601384105b15610f6057610f6085600061032f565b604080516001600160a01b038716815260ff851660208201529081018290527f5bb010dc69d7527dd8427d347a09974d8085a9e2874e9eb9bd28fb234145c3e89060600160405180910390a15050505050565b610fcb60405180602001604052806000815250611201565b6110006040518060400160405280601481526020017310ce8817dcd95b9912185b198a0a481cdd185c9d60621b815250611201565b611028604051806040016040528060068152602001651dd85b1b195d60d21b815250836102a1565b6110556040518060400160405280600b81526020016a0dac2e8e4d2f092dcc8caf60ab1b815250826102ea565b61105e3361140e565b6110aa5760405162461bcd60e51b815260206004820181905260248201527f6163636573732064656e69656420666f7220433a3a5f73656e6448616c662829604482015260640161089a565b601381106110f0576102e66040518060400160405280601d81526020017f6d6174726978496e646578203e3d20313920285f73656e6448616c6629000000815250611201565b600061110660026111008461127a565b9061146c565b905061113060405180604001604052806006815260200165185b5bdd5b9d60d21b815250826102ea565b6000836001600160a01b03168260405160006040518083038185875af1925050503d806000811461117d576040519150601f19603f3d011682016040523d82523d6000602084013e611182565b606091505b50509050806111ca5760405162461bcd60e51b81526020600482015260146024820152732330b4b632b2103a379039b2b7321022ba3432b960611b604482015260640161089a565b6111fb6040518060400160405280601081526020016f10ce8817dcd95b9912185b1988195b9960821b815250611201565b50505050565b6112448160405160240161121591906116ce565b60408051601f198184030181529190526020810180516001600160e01b031663104c13eb60e21b179052611247565b50565b80516a636f6e736f6c652e6c6f67602083016000808483855afa5050505050565b6000610c2b82846116e1565b92915050565b60006112ba6040518060400160405280601881526020017f5f6765744c6576656c5072696365282920737461727465640000000000000000815250611201565b6112e2604051806040016040528060068152602001653632bb32b61d60d11b815250836102ea565b60005482156112745760005b83811015611362576113018260026116f4565b915061131b60405180602001604052806000815250611201565b6113506040518060400160405280601381526020017272656769737465725072696365202a2032203d60681b815250836102ea565b8061135a8161170b565b9150506112ee565b5092915050565b6000610c2b8284611622565b6000610c2b82846116f4565b6040516001600160a01b03821660248201526112449060440160408051601f198184030181529190526020810180516001600160e01b031663161765e160e11b179052611247565b611244816040516024016113df91815260200190565b60408051601f198184030181529190526020810180516001600160e01b031663f5b1bba960e01b179052611247565b6000805b601481101561146357826001600160a01b031660028260148110611438576114386115f6565b01546001600160a01b0316036114515750600192915050565b8061145b8161170b565b915050611412565b50600092915050565b6000610c2b8284611724565b80356001600160a01b038116811461148f57600080fd5b919050565b6000602082840312156114a657600080fd5b610c2b82611478565b600080604083850312156114c257600080fd5b823591506114d260208401611478565b90509250929050565b6000602082840312156114ed57600080fd5b5035919050565b60008060006060848603121561150957600080fd5b61151284611478565b925060208401359150604084013560ff8116811461152f57600080fd5b809150509250925092565b6000806040838503121561154d57600080fd5b61155683611478565b946020939093013593505050565b6000815180845260005b8181101561158a5760208185018101518683018201520161156e565b506000602082860101526020601f19601f83011685010191505092915050565b6040815260006115bd6040830185611564565b905060018060a01b03831660208301529392505050565b6040815260006115e76040830185611564565b90508260208301529392505050565b634e487b7160e01b600052603260045260246000fd5b634e487b7160e01b600052601160045260246000fd5b818103818111156112745761127461160c565b8051801515811461148f57600080fd5b600060a0828403121561165757600080fd5b60405160a0810181811067ffffffffffffffff8211171561168857634e487b7160e01b600052604160045260246000fd5b806040525082518152602083015160208201526116a760408401611635565b6040820152606083015160608201526116c260808401611635565b60808201529392505050565b602081526000610c2b6020830184611564565b808201808211156112745761127461160c565b80820281158282048414176112745761127461160c565b60006001820161171d5761171d61160c565b5060010190565b60008261174157634e487b7160e01b600052601260045260246000fd5b50049056fe433a205f6d61747269636573526567697374726174696f6e206379636c6520626567696e7320776974683aa26469706673582212208df45135c96773de00f1958b74261063fcd9ee54cd31120c2694cac0c419c53b64736f6c6343000811003360806040523480156200001157600080fd5b506040516200127738038062001277833981016040819052620000349162000244565b6040805160a08101825260008082526020808301828152838501838152606085018481526001608087018181526001600160a01b03808d1680895260038089528b8a208b51815597518886015595516002808901805492151560ff199384161790559551968801969096559151600496870180549115159190961617909455845480830186559487527f8a35acfbc15ff81a39ae7d344fd709f28e8600b4aa8c65c6b64bfe7fe36bd19b90940180546001600160a01b03199081168617909155865481169094178655899055805491881691909216179055835180820190945290835290916200012d91620006c962000167821b17901c565b6200015d604051806060016040528060278152602001620012506027913984620001b560201b6200070f1760201c565b505050506200030d565b620001b2816040516024016200017e9190620002cd565b60408051601f198184030181529190526020810180516001600160e01b0390811663104c13eb60e21b179091526200020616565b50565b620002028282604051602401620001ce929190620002e9565b60408051601f198184030181529190526020810180516001600160e01b039081166309710a9d60e41b179091526200020616565b5050565b80516a636f6e736f6c652e6c6f67602083016000808483855afa5050505050565b80516001600160a01b03811681146200023f57600080fd5b919050565b6000806000606084860312156200025a57600080fd5b620002658462000227565b9250602084015191506200027c6040850162000227565b90509250925092565b6000815180845260005b81811015620002ad576020818501810151868301820152016200028f565b506000602082860101526020601f19601f83011685010191505092915050565b602081526000620002e2602083018462000285565b9392505050565b604081526000620002fe604083018562000285565b90508260208301529392505050565b610f33806200031d6000396000f3fe608060405234801561001057600080fd5b506004361061004c5760003560e01c80634420e486146100515780636f77926b14610066578063a0d03526146100c8578063be1c766b14610107575b600080fd5b61006461005f366004610c95565b610118565b005b610079610074366004610c95565b610630565b6040516100bf9190600060a08201905082518252602083015160208301526040830151151560408301526060830151606083015260808301511515608083015292915050565b60405180910390f35b6100f76100d6366004610c95565b6001600160a01b031660009081526003602052604090206004015460ff1690565b60405190151581526020016100bf565b6004546040519081526020016100bf565b610130604051806020016040528060008152506106c9565b6101696040518060400160405280601581526020017413550e8817dc9959da5cdd195c8a0a481cdd185c9d605a1b81525060015461070f565b61019f6040518060a001604052806000815260200160008152602001600015158152602001600081526020016000151581525090565b600454600090610372906101b4906002610cdb565b604080517ff8f9cbfae6cc78fbefe7cdc3a1793dfcf4f0e8bbd8cec470b6a28a7a5a3e1efd81527ff5ecf1b3e9debc68e1d9cfabc5997135bfb7a7a3938b7b606b5b4b3f2f1f0ffe60208201527ff6e4ed9ff2d6b458eadcdf97bd91692de2d4da8fd2d0ac50c6ae9a8272523616818301527fc8c0b887b0a8a4489c948c7f847c6125746c645c544c444038302820181008ff60608201527ff7cae577eec2a03cf3bad76fb589591debb2dd67e0aa9834bea6925f6a4a2e0e60808201527fe39ed557db96902cd38ed14fad815115c786af479b7e8324736353433727170760a08201527fc976c13bb96e881cb166a933a55e490d9d56952b8d4e801485467d236242260660c08201527f753a6d1b65325d0c552a4d1345224105391a310b29122104190a11030902010060e0820152610100808201909252600160f81b6001600160801b68010000000000000000640100000000620100006010600460026000198c019081041790810417908104178881041790810417908104179081041790810417017e818283848586878898a8b8c8d8e8f929395969799a9b9d9e9faaeb6bedeeff0281900460ff039091015104600160ff1b909211020190565b9050600060028210156103875750600061039f565b61039c6000610397600285610cee565b610758565b90505b60006103b081610397600186610cee565b6004549091506000906103c4908390610cee565b6103cf906001610cdb565b905060006103de826002610794565b905060006103ed8360026107a9565b905060018110156104005750600161040d565b61040a8282610cdb565b90505b6000600161041b8388610cdb565b6104259190610cee565b6040805160a0810182526004548152602081018390526000918101829052606081018a9052600160808201529950909150839003610479578015610471576004546104719082906107b5565b600160408901525b60006004828154811061048e5761048e610d01565b6000918252602090912001546002546001546040516337eb1d9f60e21b81526001600160a01b0393841660048201819052602482019290925290935091169063dfac767c90604401600060405180830381600087803b1580156104f057600080fd5b505af1158015610504573d6000803e3d6000fd5b5050505088600360008c6001600160a01b03166001600160a01b03168152602001908152602001600020600082015181600001556020820151816001015560408201518160020160006101000a81548160ff0219169083151502179055506060820151816003015560808201518160040160006101000a81548160ff02191690831515021790555090505060048a9080600181540180825580915050600190039060005260206000200160009091909190916101000a8154816001600160a01b0302191690836001600160a01b031602179055506105f0604051806020016040528060008152506106c9565b6106246040518060400160405280601381526020017213550e8817dc9959da5cdd195c8a0a48195b99606a1b8152506106c9565b50505050505050505050565b6106666040518060a001604052806000815260200160008152602001600015158152602001600081526020016000151581525090565b506001600160a01b0316600090815260036020818152604092839020835160a08101855281548152600182015492810192909252600281015460ff9081161515948301949094529182015460608201526004909101549091161515608082015290565b61070c816040516024016106dd9190610d5d565b60408051601f198184030181529190526020810180516001600160e01b031663104c13eb60e21b179052610c74565b50565b6107548282604051602401610725929190610d70565b60408051601f198184030181529190526020810180516001600160e01b03166309710a9d60e41b179052610c74565b5050565b6000825b8281101561078d5761076f816002610e76565b6107799083610cdb565b91508061078581610e82565b91505061075c565b5092915050565b60006107a08284610eb1565b90505b92915050565b60006107a08284610ec5565b6107cd604051806020016040528060008152506106c9565b6107ff6040518060400160405280601181526020017013550e8817d9dbd55c0a0a481cdd185c9d607a1b8152506106c9565b61082d6040518060400160405280600c81526020016b3830b932b73a24b73232bc1d60a11b8152508361070f565b61085b6040518060400160405280600c81526020016b0c6eae4e4cadce892dcc8caf60a31b8152508261070f565b60006004838154811061087057610870610d01565b60009182526020808320909101546001600160a01b03168083526003808352604093849020845160a0810186528154815260018201549481019490945260028082015460ff90811615159686019690965291810154606085015260040154909316151560808301529250905b60058111610c3d5761090e60405180604001604052806008815260200167034901e9e9e9e9f160c51b8152508261070f565b816040015115610c3d576000600483602001518154811061093157610931610d01565b9060005260206000200160009054906101000a90046001600160a01b031690506109776040518060400160405280600481526020016369203d3d60e01b8152508361070f565b60038211610a76576001546000036109f75760025460015460405163c92cbc8b60e01b81526001600160a01b039092169163c92cbc8b916109c091859190600090600401610ed9565b600060405180830381600087803b1580156109da57600080fd5b505af11580156109ee573d6000803e3d6000fd5b50505050610ba4565b600154601303610a3f5781600303610a3f576002805460015460405163c92cbc8b60e01b81526001600160a01b039092169263c92cbc8b926109c09286929091600401610ed9565b6002546001805460405163c92cbc8b60e01b81526001600160a01b039093169263c92cbc8b926109c0928692909190600401610ed9565b600154601303610aee576002546001805460405163c92cbc8b60e01b81526001600160a01b039093169263c92cbc8b92610ab7928692909190600401610ed9565b600060405180830381600087803b158015610ad157600080fd5b505af1158015610ae5573d6000803e3d6000fd5b50505050610b58565b6002546001805460405163c92cbc8b60e01b81526001600160a01b039093169263c92cbc8b92610b25928692909190600401610ed9565b600060405180830381600087803b158015610b3f57600080fd5b505af1158015610b53573d6000803e3d6000fd5b505050505b81600503610ba457610b9e6040518060400160405280601881526020017f476f696e6720746f20746865206e657874206d617472697800000000000000008152506106c9565b50610c3d565b600360006004856020015181548110610bbf57610bbf610d01565b60009182526020808320909101546001600160a01b031683528281019390935260409182019020815160a08101835281548152600182015493810193909352600281015460ff908116151592840192909252600381015460608401526004015416151560808201529250819050610c3581610e82565b9150506108dc565b50610c6e6040518060400160405280600f81526020016e13550e8817d9dbd55c0a0a48195b99608a1b8152506106c9565b50505050565b80516a636f6e736f6c652e6c6f67602083016000808483855afa5050505050565b600060208284031215610ca757600080fd5b81356001600160a01b0381168114610cbe57600080fd5b9392505050565b634e487b7160e01b600052601160045260246000fd5b808201808211156107a3576107a3610cc5565b818103818111156107a3576107a3610cc5565b634e487b7160e01b600052603260045260246000fd5b6000815180845260005b81811015610d3d57602081850181015186830182015201610d21565b506000602082860101526020601f19601f83011685010191505092915050565b6020815260006107a06020830184610d17565b604081526000610d836040830185610d17565b90508260208301529392505050565b600181815b80851115610dcd578160001904821115610db357610db3610cc5565b80851615610dc057918102915b93841c9390800290610d97565b509250929050565b600082610de4575060016107a3565b81610df1575060006107a3565b8160018114610e075760028114610e1157610e2d565b60019150506107a3565b60ff841115610e2257610e22610cc5565b50506001821b6107a3565b5060208310610133831016604e8410600b8410161715610e50575081810a6107a3565b610e5a8383610d92565b8060001904821115610e6e57610e6e610cc5565b029392505050565b60006107a08383610dd5565b600060018201610e9457610e94610cc5565b5060010190565b634e487b7160e01b600052601260045260246000fd5b600082610ec057610ec0610e9b565b500690565b600082610ed457610ed4610e9b565b500490565b6001600160a01b03939093168352602083019190915260ff1660408201526060019056fea2646970667358221220185c06e0f3f1b014377c3acad4ef9c9a1cfec02e4ef30fea754de7e48f8024b164736f6c634300081100334d543a204465706c6f796564204d617472697854656d706c617465207769746820696e6465783a433a204465706c6f79656420436f72652077697468203230204d617472697854656d706c61746520696e7374616e636573",
  "linkReferences": {},
  "deployedLinkReferences": {}
}